{
  "abi": [
    {
      "inputs": [],
      "stateMutability": "nonpayable",
      "type": "constructor"
    },
    {
      "anonymous": false,
      "inputs": [
        {
          "indexed": true,
          "internalType": "address",
          "name": "account",
          "type": "address"
        },
        {
          "indexed": true,
          "internalType": "address",
          "name": "operator",
          "type": "address"
        },
        {
          "indexed": false,
          "internalType": "bool",
          "name": "approved",
          "type": "bool"
        }
      ],
      "name": "ApprovalForAll",
      "type": "event"
    },
    {
      "anonymous": false,
      "inputs": [
        {
          "indexed": false,
          "internalType": "string",
          "name": "_ipfsID",
          "type": "string"
        },
        {
          "indexed": false,
          "internalType": "uint256",
          "name": "_tokenID",
          "type": "uint256"
        },
        {
          "indexed": false,
          "internalType": "uint256",
          "name": "_reward",
          "type": "uint256"
        }
      ],
      "name": "BountyCancelled",
      "type": "event"
    },
    {
      "anonymous": false,
      "inputs": [
        {
          "indexed": false,
          "internalType": "string",
          "name": "_ipfsID",
          "type": "string"
        },
        {
          "indexed": false,
          "internalType": "uint256",
          "name": "_tokenID",
          "type": "uint256"
        },
        {
          "indexed": false,
          "internalType": "uint256",
          "name": "_reward",
          "type": "uint256"
        }
      ],
      "name": "BountyClaimed",
      "type": "event"
    },
    {
      "anonymous": false,
      "inputs": [
        {
          "indexed": false,
          "internalType": "string",
          "name": "_ipfsID",
          "type": "string"
        },
        {
          "indexed": false,
          "internalType": "uint256",
          "name": "_tokenID",
          "type": "uint256"
        },
        {
          "indexed": false,
          "internalType": "uint256",
          "name": "_reward",
          "type": "uint256"
        }
      ],
      "name": "BountyCompleted",
      "type": "event"
    },
    {
      "anonymous": false,
      "inputs": [
        {
          "indexed": false,
          "internalType": "string",
          "name": "_ipfsID",
          "type": "string"
        },
        {
          "indexed": false,
          "internalType": "uint256",
          "name": "_tokenID",
          "type": "uint256"
        },
        {
          "indexed": false,
          "internalType": "uint256",
          "name": "_reward",
          "type": "uint256"
        }
      ],
      "name": "BountyCreated",
      "type": "event"
    },
    {
      "anonymous": false,
      "inputs": [
        {
          "indexed": true,
          "internalType": "bytes32",
          "name": "role",
          "type": "bytes32"
        },
        {
          "indexed": true,
          "internalType": "bytes32",
          "name": "previousAdminRole",
          "type": "bytes32"
        },
        {
          "indexed": true,
          "internalType": "bytes32",
          "name": "newAdminRole",
          "type": "bytes32"
        }
      ],
      "name": "RoleAdminChanged",
      "type": "event"
    },
    {
      "anonymous": false,
      "inputs": [
        {
          "indexed": true,
          "internalType": "bytes32",
          "name": "role",
          "type": "bytes32"
        },
        {
          "indexed": true,
          "internalType": "address",
          "name": "account",
          "type": "address"
        },
        {
          "indexed": true,
          "internalType": "address",
          "name": "sender",
          "type": "address"
        }
      ],
      "name": "RoleGranted",
      "type": "event"
    },
    {
      "anonymous": false,
      "inputs": [
        {
          "indexed": true,
          "internalType": "bytes32",
          "name": "role",
          "type": "bytes32"
        },
        {
          "indexed": true,
          "internalType": "address",
          "name": "account",
          "type": "address"
        },
        {
          "indexed": true,
          "internalType": "address",
          "name": "sender",
          "type": "address"
        }
      ],
      "name": "RoleRevoked",
      "type": "event"
    },
    {
      "anonymous": false,
      "inputs": [
        {
          "indexed": true,
          "internalType": "address",
          "name": "operator",
          "type": "address"
        },
        {
          "indexed": true,
          "internalType": "address",
          "name": "from",
          "type": "address"
        },
        {
          "indexed": true,
          "internalType": "address",
          "name": "to",
          "type": "address"
        },
        {
          "indexed": false,
          "internalType": "uint256[]",
          "name": "ids",
          "type": "uint256[]"
        },
        {
          "indexed": false,
          "internalType": "uint256[]",
          "name": "values",
          "type": "uint256[]"
        }
      ],
      "name": "TransferBatch",
      "type": "event"
    },
    {
      "anonymous": false,
      "inputs": [
        {
          "indexed": true,
          "internalType": "address",
          "name": "operator",
          "type": "address"
        },
        {
          "indexed": true,
          "internalType": "address",
          "name": "from",
          "type": "address"
        },
        {
          "indexed": true,
          "internalType": "address",
          "name": "to",
          "type": "address"
        },
        {
          "indexed": false,
          "internalType": "uint256",
          "name": "id",
          "type": "uint256"
        },
        {
          "indexed": false,
          "internalType": "uint256",
          "name": "value",
          "type": "uint256"
        }
      ],
      "name": "TransferSingle",
      "type": "event"
    },
    {
      "anonymous": false,
      "inputs": [
        {
          "indexed": false,
          "internalType": "string",
          "name": "value",
          "type": "string"
        },
        {
          "indexed": true,
          "internalType": "uint256",
          "name": "id",
          "type": "uint256"
        }
      ],
      "name": "URI",
      "type": "event"
    },
    {
      "inputs": [],
      "name": "CONTRACTOR_ROLE",
      "outputs": [
        {
          "internalType": "bytes32",
          "name": "",
          "type": "bytes32"
        }
      ],
      "stateMutability": "view",
      "type": "function"
    },
    {
      "inputs": [],
      "name": "DEFAULT_ADMIN_ROLE",
      "outputs": [
        {
          "internalType": "bytes32",
          "name": "",
          "type": "bytes32"
        }
      ],
      "stateMutability": "view",
      "type": "function"
    },
    {
      "inputs": [],
      "name": "EMPLOYER_ROLE",
      "outputs": [
        {
          "internalType": "bytes32",
          "name": "",
          "type": "bytes32"
        }
      ],
      "stateMutability": "view",
      "type": "function"
    },
    {
      "inputs": [
        {
          "internalType": "string",
          "name": "ipfsID",
          "type": "string"
        },
        {
          "internalType": "address",
          "name": "contractor",
          "type": "address"
        }
      ],
      "name": "approveCompletedBounty",
      "outputs": [],
      "stateMutability": "nonpayable",
      "type": "function"
    },
    {
      "inputs": [
        {
          "internalType": "address",
          "name": "account",
          "type": "address"
        },
        {
          "internalType": "uint256",
          "name": "id",
          "type": "uint256"
        }
      ],
      "name": "balanceOf",
      "outputs": [
        {
          "internalType": "uint256",
          "name": "",
          "type": "uint256"
        }
      ],
      "stateMutability": "view",
      "type": "function"
    },
    {
      "inputs": [
        {
          "internalType": "address[]",
          "name": "accounts",
          "type": "address[]"
        },
        {
          "internalType": "uint256[]",
          "name": "ids",
          "type": "uint256[]"
        }
      ],
      "name": "balanceOfBatch",
      "outputs": [
        {
          "internalType": "uint256[]",
          "name": "",
          "type": "uint256[]"
        }
      ],
      "stateMutability": "view",
      "type": "function"
    },
    {
      "inputs": [
        {
          "internalType": "string",
          "name": "ipfsID",
          "type": "string"
        }
      ],
      "name": "claimBounty",
      "outputs": [],
      "stateMutability": "nonpayable",
      "type": "function"
    },
    {
      "inputs": [
        {
          "internalType": "string",
          "name": "ipfsID",
          "type": "string"
        }
      ],
      "name": "claimFunds",
      "outputs": [],
      "stateMutability": "nonpayable",
      "type": "function"
    },
    {
      "inputs": [
        {
          "internalType": "string",
          "name": "ipfsID",
          "type": "string"
        }
      ],
      "name": "completeBounty",
      "outputs": [],
      "stateMutability": "nonpayable",
      "type": "function"
    },
    {
      "inputs": [
        {
          "internalType": "string",
          "name": "ipfsID",
          "type": "string"
        }
      ],
      "name": "createBounty",
      "outputs": [],
      "stateMutability": "payable",
      "type": "function"
    },
    {
      "inputs": [
        {
          "internalType": "string",
          "name": "ipfsID",
          "type": "string"
        },
        {
          "internalType": "address",
          "name": "contractor",
          "type": "address"
        }
      ],
      "name": "createPrivateBounty",
      "outputs": [],
      "stateMutability": "payable",
      "type": "function"
    },
    {
      "inputs": [
        {
          "internalType": "string",
          "name": "ipfsID",
          "type": "string"
        }
      ],
      "name": "getClaimers",
      "outputs": [
        {
          "internalType": "address[]",
          "name": "",
          "type": "address[]"
        }
      ],
      "stateMutability": "view",
      "type": "function"
    },
    {
      "inputs": [
        {
          "internalType": "bytes32",
          "name": "role",
          "type": "bytes32"
        }
      ],
      "name": "getRoleAdmin",
      "outputs": [
        {
          "internalType": "bytes32",
          "name": "",
          "type": "bytes32"
        }
      ],
      "stateMutability": "view",
      "type": "function"
    },
    {
      "inputs": [
        {
          "internalType": "string",
          "name": "ipfsID",
          "type": "string"
        }
      ],
      "name": "getTokenID",
      "outputs": [
        {
          "internalType": "uint256",
          "name": "",
          "type": "uint256"
        }
      ],
      "stateMutability": "view",
      "type": "function"
    },
    {
      "inputs": [
        {
          "internalType": "bytes32",
          "name": "role",
          "type": "bytes32"
        },
        {
          "internalType": "address",
          "name": "account",
          "type": "address"
        }
      ],
      "name": "grantRole",
      "outputs": [],
      "stateMutability": "nonpayable",
      "type": "function"
    },
    {
      "inputs": [],
      "name": "grantRoleContractor",
      "outputs": [],
      "stateMutability": "nonpayable",
      "type": "function"
    },
    {
      "inputs": [],
      "name": "grantRoleEmployer",
      "outputs": [],
      "stateMutability": "nonpayable",
      "type": "function"
    },
    {
      "inputs": [
        {
          "internalType": "bytes32",
          "name": "role",
          "type": "bytes32"
        },
        {
          "internalType": "address",
          "name": "account",
          "type": "address"
        }
      ],
      "name": "hasRole",
      "outputs": [
        {
          "internalType": "bool",
          "name": "",
          "type": "bool"
        }
      ],
      "stateMutability": "view",
      "type": "function"
    },
    {
      "inputs": [
        {
          "internalType": "address",
          "name": "account",
          "type": "address"
        },
        {
          "internalType": "address",
          "name": "operator",
          "type": "address"
        }
      ],
      "name": "isApprovedForAll",
      "outputs": [
        {
          "internalType": "bool",
          "name": "",
          "type": "bool"
        }
      ],
      "stateMutability": "view",
      "type": "function"
    },
    {
      "inputs": [
        {
          "internalType": "bytes32",
          "name": "role",
          "type": "bytes32"
        },
        {
          "internalType": "address",
          "name": "account",
          "type": "address"
        }
      ],
      "name": "renounceRole",
      "outputs": [],
      "stateMutability": "nonpayable",
      "type": "function"
    },
    {
      "inputs": [
        {
          "internalType": "bytes32",
          "name": "role",
          "type": "bytes32"
        },
        {
          "internalType": "address",
          "name": "account",
          "type": "address"
        }
      ],
      "name": "revokeRole",
      "outputs": [],
      "stateMutability": "nonpayable",
      "type": "function"
    },
    {
      "inputs": [],
      "name": "revokeRoleContractor",
      "outputs": [],
      "stateMutability": "nonpayable",
      "type": "function"
    },
    {
      "inputs": [],
      "name": "revokeRoleEmployer",
      "outputs": [],
      "stateMutability": "nonpayable",
      "type": "function"
    },
    {
      "inputs": [
        {
          "internalType": "address",
          "name": "from",
          "type": "address"
        },
        {
          "internalType": "address",
          "name": "to",
          "type": "address"
        },
        {
          "internalType": "uint256[]",
          "name": "ids",
          "type": "uint256[]"
        },
        {
          "internalType": "uint256[]",
          "name": "amounts",
          "type": "uint256[]"
        },
        {
          "internalType": "bytes",
          "name": "data",
          "type": "bytes"
        }
      ],
      "name": "safeBatchTransferFrom",
      "outputs": [],
      "stateMutability": "nonpayable",
      "type": "function"
    },
    {
      "inputs": [
        {
          "internalType": "address",
          "name": "from",
          "type": "address"
        },
        {
          "internalType": "address",
          "name": "to",
          "type": "address"
        },
        {
          "internalType": "uint256",
          "name": "id",
          "type": "uint256"
        },
        {
          "internalType": "uint256",
          "name": "amount",
          "type": "uint256"
        },
        {
          "internalType": "bytes",
          "name": "data",
          "type": "bytes"
        }
      ],
      "name": "safeTransferFrom",
      "outputs": [],
      "stateMutability": "nonpayable",
      "type": "function"
    },
    {
      "inputs": [
        {
          "internalType": "address",
          "name": "operator",
          "type": "address"
        },
        {
          "internalType": "bool",
          "name": "approved",
          "type": "bool"
        }
      ],
      "name": "setApprovalForAll",
      "outputs": [],
      "stateMutability": "nonpayable",
      "type": "function"
    },
    {
      "inputs": [
        {
          "internalType": "address",
          "name": "addr",
          "type": "address"
        }
      ],
      "name": "setContract",
      "outputs": [],
      "stateMutability": "nonpayable",
      "type": "function"
    },
    {
      "inputs": [
        {
          "internalType": "bytes4",
          "name": "interfaceId",
          "type": "bytes4"
        }
      ],
      "name": "supportsInterface",
      "outputs": [
        {
          "internalType": "bool",
          "name": "",
          "type": "bool"
        }
      ],
      "stateMutability": "view",
      "type": "function"
    },
    {
      "inputs": [],
      "name": "tokenID",
      "outputs": [
        {
          "internalType": "uint256",
          "name": "",
          "type": "uint256"
        }
      ],
      "stateMutability": "view",
      "type": "function"
    },
    {
      "inputs": [
        {
          "internalType": "uint256",
          "name": "",
          "type": "uint256"
        },
        {
          "internalType": "uint256",
          "name": "",
          "type": "uint256"
        }
      ],
      "name": "tokenIDtoClaimers",
      "outputs": [
        {
          "internalType": "address",
          "name": "",
          "type": "address"
        }
      ],
      "stateMutability": "view",
      "type": "function"
    },
    {
      "inputs": [
        {
          "internalType": "uint256",
          "name": "",
          "type": "uint256"
        }
      ],
      "name": "tokenIDtoDone",
      "outputs": [
        {
          "internalType": "bool",
          "name": "",
          "type": "bool"
        }
      ],
      "stateMutability": "view",
      "type": "function"
    },
    {
      "inputs": [
        {
          "internalType": "uint256",
          "name": "",
          "type": "uint256"
        }
      ],
      "name": "tokenIDtoIPFS",
      "outputs": [
        {
          "internalType": "string",
          "name": "",
          "type": "string"
        }
      ],
      "stateMutability": "view",
      "type": "function"
    },
    {
      "inputs": [
        {
          "internalType": "uint256",
          "name": "",
          "type": "uint256"
        }
      ],
      "name": "tokenIDtoReward",
      "outputs": [
        {
          "internalType": "uint256",
          "name": "",
          "type": "uint256"
        }
      ],
      "stateMutability": "view",
      "type": "function"
    },
    {
      "inputs": [
        {
          "internalType": "string",
          "name": "tokenId",
          "type": "string"
        }
      ],
      "name": "tokenURI",
      "outputs": [
        {
          "internalType": "string",
          "name": "",
          "type": "string"
        }
      ],
      "stateMutability": "pure",
      "type": "function"
    },
    {
      "inputs": [],
      "name": "treasury",
      "outputs": [
        {
          "internalType": "address",
          "name": "",
          "type": "address"
        }
      ],
      "stateMutability": "view",
      "type": "function"
    },
    {
      "inputs": [
        {
          "internalType": "uint256",
          "name": "",
          "type": "uint256"
        }
      ],
      "name": "uri",
      "outputs": [
        {
          "internalType": "string",
          "name": "",
          "type": "string"
        }
      ],
      "stateMutability": "view",
      "type": "function"
    }
  ],
  "bytecode": {
    "object": "0x6080604052600680546001600160a01b031916905560006007553480156200002657600080fd5b506040518060800160405280605d81526020016200351d605d91396200004c8162000065565b5060016004556200005f60003362000077565b62000295565b6002620000738282620001c9565b5050565b60008281526003602090815260408083206001600160a01b038516845290915290205462000073908390839060ff16620000735760008281526003602090815260408083206001600160a01b03851684529091529020805460ff19166001179055620000e03390565b6001600160a01b0316816001600160a01b0316837f2f8788117e7eff1d82e926ec794901d17c78024a50270940304540a733656f0d60405160405180910390a45050565b634e487b7160e01b600052604160045260246000fd5b600181811c908216806200014f57607f821691505b6020821081036200017057634e487b7160e01b600052602260045260246000fd5b50919050565b601f821115620001c457600081815260208120601f850160051c810160208610156200019f5750805b601f850160051c820191505b81811015620001c057828155600101620001ab565b5050505b505050565b81516001600160401b03811115620001e557620001e562000124565b620001fd81620001f684546200013a565b8462000176565b602080601f8311600181146200023557600084156200021c5750858301515b600019600386901b1c1916600185901b178555620001c0565b600085815260208120601f198616915b82811015620002665788860151825594840194600190910190840162000245565b5085821015620002855787850151600019600388901b60f8161c191681555b5050505050600190811b01905550565b61327880620002a56000396000f3fe60806040526004361061020e5760003560e01c80638b4f049611610118578063c4f77977116100a0578063d8eaae3c1161006f578063d8eaae3c14610636578063e706a6391461064b578063e985e9c51461066b578063f242432a146106b4578063f88e3204146106d457600080fd5b8063c4f77977146105b6578063d159a942146105d6578063d547741f14610603578063d74ea3be1461062357600080fd5b8063a22cb465116100e7578063a22cb46514610510578063a406370a14610530578063a5c42ef114610560578063b4b46d4714610576578063bef7143d1461059657600080fd5b80638b4f04961461048e57806391d14854146104ae578063a08eda5a146104ce578063a217fddf146104fb57600080fd5b806336568abe1161019b5780634cf12d261161016a5780634cf12d26146103d45780634e1273f4146103f457806361775eb01461042157806361d027b31461043657806375f890ab1461046e57600080fd5b806336568abe1461035f5780633e9b347f1461037f578063437702751461039457806345149390146103b457600080fd5b80631ccd7910116101e25780631ccd7910146102b85780632426bb38146102cd578063248a9ca3146102ef5780632eb2c2d61461031f5780632f2ff15d1461033f57600080fd5b8062fdd58e1461021357806301ffc9a71461024657806306868c4b146102765780630e89341c1461028b575b600080fd5b34801561021f57600080fd5b5061023361022e3660046124b7565b6106f6565b6040519081526020015b60405180910390f35b34801561025257600080fd5b506102666102613660046124f7565b61078c565b604051901515815260200161023d565b6102896102843660046125cb565b61079d565b005b34801561029757600080fd5b506102ab6102a6366004612608565b61090f565b60405161023d919061267d565b3480156102c457600080fd5b506102896109a3565b3480156102d957600080fd5b506102336000805160206131d083398151915281565b3480156102fb57600080fd5b5061023361030a366004612608565b60009081526003602052604090206001015490565b34801561032b57600080fd5b5061028961033a366004612725565b610a22565b34801561034b57600080fd5b5061028961035a3660046127cf565b610a6e565b34801561036b57600080fd5b5061028961037a3660046127cf565b610a98565b34801561038b57600080fd5b50610289610b16565b3480156103a057600080fd5b506102896103af3660046125cb565b610b93565b3480156103c057600080fd5b506102ab6103cf366004612608565b610cb0565b3480156103e057600080fd5b506102ab6103ef3660046125cb565b610d4a565b34801561040057600080fd5b5061041461040f3660046127fb565b610d8c565b60405161023d9190612901565b34801561042d57600080fd5b50610289610eb6565b34801561044257600080fd5b50600654610456906001600160a01b031681565b6040516001600160a01b03909116815260200161023d565b34801561047a57600080fd5b50610289610489366004612914565b610ece565b34801561049a57600080fd5b506104566104a936600461292f565b610f47565b3480156104ba57600080fd5b506102666104c93660046127cf565b610f7f565b3480156104da57600080fd5b506104ee6104e93660046125cb565b610faa565b60405161023d9190612951565b34801561050757600080fd5b50610233600081565b34801561051c57600080fd5b5061028961052b36600461299e565b611083565b34801561053c57600080fd5b5061026661054b366004612608565b600b6020526000908152604090205460ff1681565b34801561056c57600080fd5b5061023360075481565b34801561058257600080fd5b506102896105913660046125cb565b61108e565b3480156105a257600080fd5b506102896105b13660046129da565b61131a565b3480156105c257600080fd5b506102896105d13660046125cb565b61146d565b3480156105e257600080fd5b506102336105f1366004612608565b60096020526000908152604090205481565b34801561060f57600080fd5b5061028961061e3660046127cf565b6115ef565b6102896106313660046129da565b611614565b34801561064257600080fd5b506102896117a8565b34801561065757600080fd5b506102336106663660046125cb565b6117c0565b34801561067757600080fd5b50610266610686366004612a1f565b6001600160a01b03918216600090815260016020908152604080832093909416825291909152205460ff1690565b3480156106c057600080fd5b506102896106cf366004612a49565b611893565b3480156106e057600080fd5b506102336000805160206131b083398151915281565b60006001600160a01b0383166107665760405162461bcd60e51b815260206004820152602a60248201527f455243313135353a2061646472657373207a65726f206973206e6f742061207660448201526930b634b21037bbb732b960b11b60648201526084015b60405180910390fd5b506000908152602081815260408083206001600160a01b03949094168352929052205490565b6000610797826118d8565b92915050565b6107b56000805160206131d083398151915233610f7f565b6107fd5760405162461bcd60e51b815260206004820152601960248201527821b0b63632b91034b9903737ba1030b71032b6b83637bcb2b960391b604482015260640161075d565b6000341161081d5760405162461bcd60e51b815260040161075d90612aae565b600654600754604080516020810190915260008152349261084c926001600160a01b03909116916001906118fd565b6006546040516001600160a01b039091169082156108fc029083906000818181858888f19350505050158015610886573d6000803e3d6000fd5b5060075460009081526008602052604090206108a28382612b73565b506007805460009081526009602052604090819020839055905490517fd03c9595063e238ef5abf908f74cfe2963bc5c60cde40d8f99f13d8bc6cd9be2916108ee918591908590612c33565b60405180910390a16007805490600061090683612c6e565b91905055505050565b60606002805461091e90612af3565b80601f016020809104026020016040519081016040528092919081815260200182805461094a90612af3565b80156109975780601f1061096c57610100808354040283529160200191610997565b820191906000526020600020905b81548152906001019060200180831161097a57829003601f168201915b50505050509050919050565b6109bb6000805160206131d083398151915233610f7f565b15610a085760405162461bcd60e51b815260206004820152601d60248201527f43616c6c657220697320616c726561647920616e20656d706c6f796572000000604482015260640161075d565b610a206000805160206131b083398151915233611a08565b565b6001600160a01b038516331480610a3e5750610a3e8533610686565b610a5a5760405162461bcd60e51b815260040161075d90612c87565b610a678585858585611a12565b5050505050565b600082815260036020526040902060010154610a8981611bef565b610a938383611bfc565b505050565b6001600160a01b0381163314610b085760405162461bcd60e51b815260206004820152602f60248201527f416363657373436f6e74726f6c3a2063616e206f6e6c792072656e6f756e636560448201526e103937b632b9903337b91039b2b63360891b606482015260840161075d565b610b128282611c82565b5050565b610b2e6000805160206131b083398151915233610f7f565b15610b7b5760405162461bcd60e51b815260206004820152601e60248201527f43616c6c657220697320616c7265616479206120636f6e74726163746f720000604482015260640161075d565b610a206000805160206131d083398151915233611a08565b610bab6000805160206131b083398151915233610f7f565b610bc75760405162461bcd60e51b815260040161075d90612cd5565b60405163e706a63960e01b8152600090309063e706a63990610bed90859060040161267d565b602060405180830381865afa158015610c0a573d6000803e3d6000fd5b505050506040513d601f19601f82011682018060405250810190610c2e9190612d0c565b6000818152600a6020908152604080832080546001810182559084528284200180546001600160a01b03191633179055838352600882528083206009909252918290205491519293507fc7f5957ad976140878015d285fd47bebc799a9a4a33a8b17efd687a9b1434a3092610ca4928591612d25565b60405180910390a15050565b60086020526000908152604090208054610cc990612af3565b80601f0160208091040260200160405190810160405280929190818152602001828054610cf590612af3565b8015610d425780601f10610d1757610100808354040283529160200191610d42565b820191906000526020600020905b815481529060010190602001808311610d2557829003601f168201915b505050505081565b60606107976040518060800160405280605381526020016131f0605391398360405180604001604052806005815260200164173539b7b760d91b815250611ce9565b60608151835114610df15760405162461bcd60e51b815260206004820152602960248201527f455243313135353a206163636f756e747320616e6420696473206c656e677468604482015268040dad2e6dac2e8c6d60bb1b606482015260840161075d565b6000835167ffffffffffffffff811115610e0d57610e0d612514565b604051908082528060200260200182016040528015610e36578160200160208202803683370190505b50905060005b8451811015610eae57610e81858281518110610e5a57610e5a612dbb565b6020026020010151858381518110610e7457610e74612dbb565b60200260200101516106f6565b828281518110610e9357610e93612dbb565b6020908102919091010152610ea781612c6e565b9050610e3c565b509392505050565b610a206000805160206131b0833981519152336115ef565b610ed9600033610f7f565b610f255760405162461bcd60e51b815260206004820152601760248201527f43616c6c6572206973206e6f74207468652061646d696e000000000000000000604482015260640161075d565b600680546001600160a01b0319166001600160a01b0392909216919091179055565b600a6020528160005260406000208181548110610f6357600080fd5b6000918252602090912001546001600160a01b03169150829050565b60009182526003602090815260408084206001600160a01b0393909316845291905290205460ff1690565b60405163e706a63960e01b8152606090600090309063e706a63990610fd390869060040161267d565b602060405180830381865afa158015610ff0573d6000803e3d6000fd5b505050506040513d601f19601f820116820180604052508101906110149190612d0c565b6000818152600a6020908152604091829020805483518184028101840190945280845293945091929083018282801561107657602002820191906000526020600020905b81546001600160a01b03168152600190910190602001808311611058575b5050505050915050919050565b610b12338383611d18565b6110a66000805160206131b083398151915233610f7f565b6110c25760405162461bcd60e51b815260040161075d90612cd5565b60405163e706a63960e01b8152600090309063e706a639906110e890859060040161267d565b602060405180830381865afa158015611105573d6000803e3d6000fd5b505050506040513d601f19601f820116820180604052508101906111299190612d0c565b6000818152600a602090815260408083208054825181850281018501909352808352949550929390929183018282801561118c57602002820191906000526020600020905b81546001600160a01b0316815260019091019060200180831161116e575b509394506000935050505060005b82518110156111e2576111c68382815181106111b8576111b8612dbb565b602002602001015133611df8565b156111d057600191505b806111da81612c6e565b91505061119a565b50806112305760405162461bcd60e51b815260206004820152601e60248201527f43616c6c6572206973206e6f74206120626f756e747920636c61696d65720000604482015260640161075d565b6000838152600b602052604090205460ff1661125e5760405162461bcd60e51b815260040161075d90612dd1565b60065460405163f3fef3a360e01b8152336004820152602481018590526001600160a01b039091169063f3fef3a390604401600060405180830381600087803b1580156112aa57600080fd5b505af11580156112be573d6000803e3d6000fd5b50505060008481526008602090815260408083206009909252918290205491517ff9d5b8621260e8c7e877bcee0fc9f0e573e710ba890884275d67dcfc19e0b056935061130c928791612d25565b60405180910390a150505050565b6113326000805160206131d083398151915233610f7f565b61137e5760405162461bcd60e51b815260206004820152601860248201527f43616c6c6572206973206e6f74206120656d706c6f7965720000000000000000604482015260640161075d565b60405163e706a63960e01b8152600090309063e706a639906113a490869060040161267d565b602060405180830381865afa1580156113c1573d6000803e3d6000fd5b505050506040513d601f19601f820116820180604052508101906113e59190612d0c565b6000818152600b602052604090819020805460ff19166001179055600654905163131f8abb60e31b81526001600160a01b038581166004830152602482018490529293509116906398fc55d8906044015b600060405180830381600087803b15801561145057600080fd5b505af1158015611464573d6000803e3d6000fd5b50505050505050565b6114856000805160206131b083398151915233610f7f565b6114a15760405162461bcd60e51b815260040161075d90612cd5565b60405163e706a63960e01b8152600090309063e706a639906114c790859060040161267d565b602060405180830381865afa1580156114e4573d6000803e3d6000fd5b505050506040513d601f19601f820116820180604052508101906115089190612d0c565b6000818152600b602052604090205490915060ff166115395760405162461bcd60e51b815260040161075d90612dd1565b600161154533836106f6565b10156115a15760405162461bcd60e51b815260206004820152602560248201527f596f752068617665206e6f7420636f6d706c657465642074686520426f756e746044820152641e481e595d60da1b606482015260840161075d565b60008181526009602052604090819020546006549151631f58fee360e11b8152336004820152602481018490526044810182905290916001600160a01b031690633eb1fdc690606401611436565b60008281526003602052604090206001015461160a81611bef565b610a938383611c82565b61162c6000805160206131d083398151915233610f7f565b6116745760405162461bcd60e51b815260206004820152601960248201527821b0b63632b91034b9903737ba1030b71032b6b83637bcb2b960391b604482015260640161075d565b600034116116945760405162461bcd60e51b815260040161075d90612aae565b60065460075460408051602081019091526000815234926116c3926001600160a01b03909116916001906118fd565b6006546040516001600160a01b039091169082156108fc029083906000818181858888f193505050501580156116fd573d6000803e3d6000fd5b5060075460009081526008602052604090206117198482612b73565b507fd03c9595063e238ef5abf908f74cfe2963bc5c60cde40d8f99f13d8bc6cd9be2836007548360405161174f93929190612c33565b60405180910390a16007805490600061176783612c6e565b909155505060065460075460405163131f8abb60e31b81526001600160a01b03858116600483015260248201929092529116906398fc55d890604401611436565b610a206000805160206131d0833981519152336115ef565b60008060005b600754811161188c576000818152600860205260409020805461187191906117ed90612af3565b80601f016020809104026020016040519081016040528092919081815260200182805461181990612af3565b80156118665780601f1061183b57610100808354040283529160200191611866565b820191906000526020600020905b81548152906001019060200180831161184957829003601f168201915b505050505085611e78565b1561187a578091505b8061188481612c6e565b9150506117c6565b5092915050565b6001600160a01b0385163314806118af57506118af8533610686565b6118cb5760405162461bcd60e51b815260040161075d90612c87565b610a678585858585611eb2565b60006001600160e01b03198216637965db0b60e01b1480610797575061079782611fdc565b6001600160a01b03841661195d5760405162461bcd60e51b815260206004820152602160248201527f455243313135353a206d696e7420746f20746865207a65726f206164647265736044820152607360f81b606482015260840161075d565b3360006119698561202c565b905060006119768561202c565b90506000868152602081815260408083206001600160a01b038b168452909152812080548792906119a8908490612e22565b909155505060408051878152602081018790526001600160a01b03808a1692600092918716917fc3d58168c5ae7397731d063d5bbf3d657854427343f4c083240f7aacaa2d0f62910160405180910390a461146483600089898989612077565b610b128282611bfc565b8151835114611a745760405162461bcd60e51b815260206004820152602860248201527f455243313135353a2069647320616e6420616d6f756e7473206c656e677468206044820152670dad2e6dac2e8c6d60c31b606482015260840161075d565b6001600160a01b038416611a9a5760405162461bcd60e51b815260040161075d90612e3a565b3360005b8451811015611b81576000858281518110611abb57611abb612dbb565b602002602001015190506000858381518110611ad957611ad9612dbb565b602090810291909101810151600084815280835260408082206001600160a01b038e168352909352919091205490915081811015611b295760405162461bcd60e51b815260040161075d90612e7f565b6000838152602081815260408083206001600160a01b038e8116855292528083208585039055908b16825281208054849290611b66908490612e22565b9250508190555050505080611b7a90612c6e565b9050611a9e565b50846001600160a01b0316866001600160a01b0316826001600160a01b03167f4a39dc06d4c0dbc64b70af90fd698a233a518aa5d07e595d983b8c0526c8f7fb8787604051611bd1929190612ec9565b60405180910390a4611be78187878787876121d2565b505050505050565b611bf9813361228d565b50565b611c068282610f7f565b610b125760008281526003602090815260408083206001600160a01b03851684529091529020805460ff19166001179055611c3e3390565b6001600160a01b0316816001600160a01b0316837f2f8788117e7eff1d82e926ec794901d17c78024a50270940304540a733656f0d60405160405180910390a45050565b611c8c8282610f7f565b15610b125760008281526003602090815260408083206001600160a01b0385168085529252808320805460ff1916905551339285917ff6391f5c32d9c69d2a47ea670b442974b53935d1edc7fd64eb21e047a839171b9190a45050565b6060838383604051602001611d0093929190612ef7565b60405160208183030381529060405290509392505050565b816001600160a01b0316836001600160a01b031603611d8b5760405162461bcd60e51b815260206004820152602960248201527f455243313135353a2073657474696e6720617070726f76616c20737461747573604482015268103337b91039b2b63360b91b606482015260840161075d565b6001600160a01b03838116600081815260016020908152604080832094871680845294825291829020805460ff191686151590811790915591519182527f17307eab39ab6107e8899845ad3d59bd9653f200f220920489ca2b5937696c31910160405180910390a3505050565b6040516bffffffffffffffffffffffff19606083901b1660208201526000906034016040516020818303038152906040528051906020012083604051602001611e59919060609190911b6bffffffffffffffffffffffff1916815260140190565b6040516020818303038152906040528051906020012014905092915050565b600081604051602001611e8b9190612f3a565b6040516020818303038152906040528051906020012083604051602001611e599190612f3a565b6001600160a01b038416611ed85760405162461bcd60e51b815260040161075d90612e3a565b336000611ee48561202c565b90506000611ef18561202c565b90506000868152602081815260408083206001600160a01b038c16845290915290205485811015611f345760405162461bcd60e51b815260040161075d90612e7f565b6000878152602081815260408083206001600160a01b038d8116855292528083208985039055908a16825281208054889290611f71908490612e22565b909155505060408051888152602081018890526001600160a01b03808b16928c821692918816917fc3d58168c5ae7397731d063d5bbf3d657854427343f4c083240f7aacaa2d0f62910160405180910390a4611fd1848a8a8a8a8a612077565b505050505050505050565b60006001600160e01b03198216636cdb3d1360e11b148061200d57506001600160e01b031982166303a24d0760e21b145b8061079757506301ffc9a760e01b6001600160e01b0319831614610797565b6040805160018082528183019092526060916000919060208083019080368337019050509050828160008151811061206657612066612dbb565b602090810291909101015292915050565b6001600160a01b0384163b15611be75760405163f23a6e6160e01b81526001600160a01b0385169063f23a6e61906120bb9089908990889088908890600401612f56565b6020604051808303816000875af19250505080156120f6575060408051601f3d908101601f191682019092526120f391810190612f9b565b60015b6121a257612102612fb8565b806308c379a00361213b5750612116612fd4565b80612121575061213d565b8060405162461bcd60e51b815260040161075d919061267d565b505b60405162461bcd60e51b815260206004820152603460248201527f455243313135353a207472616e7366657220746f206e6f6e2d455243313135356044820152732932b1b2b4bb32b91034b6b83632b6b2b73a32b960611b606482015260840161075d565b6001600160e01b0319811663f23a6e6160e01b146114645760405162461bcd60e51b815260040161075d9061305e565b6001600160a01b0384163b15611be75760405163bc197c8160e01b81526001600160a01b0385169063bc197c819061221690899089908890889088906004016130a6565b6020604051808303816000875af1925050508015612251575060408051601f3d908101601f1916820190925261224e91810190612f9b565b60015b61225d57612102612fb8565b6001600160e01b0319811663bc197c8160e01b146114645760405162461bcd60e51b815260040161075d9061305e565b6122978282610f7f565b610b12576122a4816122e6565b6122af8360206122f8565b6040516020016122c0929190613104565b60408051601f198184030181529082905262461bcd60e51b825261075d9160040161267d565b60606107976001600160a01b03831660145b60606000612307836002613179565b612312906002612e22565b67ffffffffffffffff81111561232a5761232a612514565b6040519080825280601f01601f191660200182016040528015612354576020820181803683370190505b509050600360fc1b8160008151811061236f5761236f612dbb565b60200101906001600160f81b031916908160001a905350600f60fb1b8160018151811061239e5761239e612dbb565b60200101906001600160f81b031916908160001a90535060006123c2846002613179565b6123cd906001612e22565b90505b6001811115612445576f181899199a1a9b1b9c1cb0b131b232b360811b85600f166010811061240157612401612dbb565b1a60f81b82828151811061241757612417612dbb565b60200101906001600160f81b031916908160001a90535060049490941c9361243e81613198565b90506123d0565b5083156124945760405162461bcd60e51b815260206004820181905260248201527f537472696e67733a20686578206c656e67746820696e73756666696369656e74604482015260640161075d565b9392505050565b80356001600160a01b03811681146124b257600080fd5b919050565b600080604083850312156124ca57600080fd5b6124d38361249b565b946020939093013593505050565b6001600160e01b031981168114611bf957600080fd5b60006020828403121561250957600080fd5b8135612494816124e1565b634e487b7160e01b600052604160045260246000fd5b601f8201601f1916810167ffffffffffffffff8111828210171561255057612550612514565b6040525050565b600082601f83011261256857600080fd5b813567ffffffffffffffff81111561258257612582612514565b604051612599601f8301601f19166020018261252a565b8181528460208386010111156125ae57600080fd5b816020850160208301376000918101602001919091529392505050565b6000602082840312156125dd57600080fd5b813567ffffffffffffffff8111156125f457600080fd5b61260084828501612557565b949350505050565b60006020828403121561261a57600080fd5b5035919050565b60005b8381101561263c578181015183820152602001612624565b8381111561264b576000848401525b50505050565b60008151808452612669816020860160208601612621565b601f01601f19169290920160200192915050565b6020815260006124946020830184612651565b600067ffffffffffffffff8211156126aa576126aa612514565b5060051b60200190565b600082601f8301126126c557600080fd5b813560206126d282612690565b6040516126df828261252a565b83815260059390931b85018201928281019150868411156126ff57600080fd5b8286015b8481101561271a5780358352918301918301612703565b509695505050505050565b600080600080600060a0868803121561273d57600080fd5b6127468661249b565b94506127546020870161249b565b9350604086013567ffffffffffffffff8082111561277157600080fd5b61277d89838a016126b4565b9450606088013591508082111561279357600080fd5b61279f89838a016126b4565b935060808801359150808211156127b557600080fd5b506127c288828901612557565b9150509295509295909350565b600080604083850312156127e257600080fd5b823591506127f26020840161249b565b90509250929050565b6000806040838503121561280e57600080fd5b823567ffffffffffffffff8082111561282657600080fd5b818501915085601f83011261283a57600080fd5b8135602061284782612690565b604051612854828261252a565b83815260059390931b850182019282810191508984111561287457600080fd5b948201945b838610156128995761288a8661249b565b82529482019490820190612879565b965050860135925050808211156128af57600080fd5b506128bc858286016126b4565b9150509250929050565b600081518084526020808501945080840160005b838110156128f6578151875295820195908201906001016128da565b509495945050505050565b60208152600061249460208301846128c6565b60006020828403121561292657600080fd5b6124948261249b565b6000806040838503121561294257600080fd5b50508035926020909101359150565b6020808252825182820181905260009190848201906040850190845b818110156129925783516001600160a01b03168352928401929184019160010161296d565b50909695505050505050565b600080604083850312156129b157600080fd5b6129ba8361249b565b9150602083013580151581146129cf57600080fd5b809150509250929050565b600080604083850312156129ed57600080fd5b823567ffffffffffffffff811115612a0457600080fd5b612a1085828601612557565b9250506127f26020840161249b565b60008060408385031215612a3257600080fd5b612a3b8361249b565b91506127f26020840161249b565b600080600080600060a08688031215612a6157600080fd5b612a6a8661249b565b9450612a786020870161249b565b93506040860135925060608601359150608086013567ffffffffffffffff811115612aa257600080fd5b6127c288828901612557565b60208082526025908201527f506c6561736520646566696e6520612072657761726420666f722074686520426040820152646f756e747960d81b606082015260800190565b600181811c90821680612b0757607f821691505b602082108103612b2757634e487b7160e01b600052602260045260246000fd5b50919050565b601f821115610a9357600081815260208120601f850160051c81016020861015612b545750805b601f850160051c820191505b81811015611be757828155600101612b60565b815167ffffffffffffffff811115612b8d57612b8d612514565b612ba181612b9b8454612af3565b84612b2d565b602080601f831160018114612bd65760008415612bbe5750858301515b600019600386901b1c1916600185901b178555611be7565b600085815260208120601f198616915b82811015612c0557888601518255948401946001909101908401612be6565b5085821015612c235787850151600019600388901b60f8161c191681555b5050505050600190811b01905550565b606081526000612c466060830186612651565b60208301949094525060400152919050565b634e487b7160e01b600052601160045260246000fd5b600060018201612c8057612c80612c58565b5060010190565b6020808252602e908201527f455243313135353a2063616c6c6572206973206e6f7420746f6b656e206f776e60408201526d195c881bdc88185c1c1c9bdd995960921b606082015260800190565b6020808252601a908201527f43616c6c6572206973206e6f74206120636f6e74726163746f72000000000000604082015260600190565b600060208284031215612d1e57600080fd5b5051919050565b606081526000808554612d3781612af3565b8060608601526080600180841660008114612d595760018114612d7357612da4565b60ff1985168884015283151560051b880183019550612da4565b8a60005260208060002060005b86811015612d9b5781548b8201870152908401908201612d80565b8a018501975050505b505050505060208301949094525060400152919050565b634e487b7160e01b600052603260045260246000fd5b60208082526031908201527f426f756e747920636f6d706c6574696f6e206973206e6f7420617070726f76656040820152703210313c903a34329032b6b83637bcb2b960791b606082015260800190565b60008219821115612e3557612e35612c58565b500190565b60208082526025908201527f455243313135353a207472616e7366657220746f20746865207a65726f206164604082015264647265737360d81b606082015260800190565b6020808252602a908201527f455243313135353a20696e73756666696369656e742062616c616e636520666f60408201526939103a3930b739b332b960b11b606082015260800190565b604081526000612edc60408301856128c6565b8281036020840152612eee81856128c6565b95945050505050565b60008451612f09818460208901612621565b845190830190612f1d818360208901612621565b8451910190612f30818360208801612621565b0195945050505050565b60008251612f4c818460208701612621565b9190910192915050565b6001600160a01b03868116825285166020820152604081018490526060810183905260a060808201819052600090612f9090830184612651565b979650505050505050565b600060208284031215612fad57600080fd5b8151612494816124e1565b600060033d1115612fd15760046000803e5060005160e01c5b90565b600060443d1015612fe25790565b6040516003193d81016004833e81513d67ffffffffffffffff816024840111818411171561301257505050505090565b828501915081518181111561302a5750505050505090565b843d87010160208285010111156130445750505050505090565b6130536020828601018761252a565b509095945050505050565b60208082526028908201527f455243313135353a204552433131353552656365697665722072656a656374656040820152676420746f6b656e7360c01b606082015260800190565b6001600160a01b0386811682528516602082015260a0604082018190526000906130d2908301866128c6565b82810360608401526130e481866128c6565b905082810360808401526130f88185612651565b98975050505050505050565b7f416363657373436f6e74726f6c3a206163636f756e742000000000000000000081526000835161313c816017850160208801612621565b7001034b99036b4b9b9b4b733903937b6329607d1b601791840191820152835161316d816028840160208801612621565b01602801949350505050565b600081600019048311821515161561319357613193612c58565b500290565b6000816131a7576131a7612c58565b50600019019056feef28dcbf06eb73add8f77665c46a6263e719f928f9c34710ec1097573ba6e20cfc7c36207174f786648d2e624616a4b40e15fd7f0268b4e36af5057f0c43c83568747470733a2f2f697066732e696f2f69706e732f6b3531717a693575717535646969746272306b7977326a7574357a36643036686d39323374316d71617967756477347a663275316f636269703838696571a2646970667358221220411159f0732a46e57af6d3af5a1fc10ec3dcf16f64355c1e9c6aa1fc4090a4c264736f6c634300080f003368747470733a2f2f697066732e696f2f69706e732f6b3531717a693575717535646969746272306b7977326a7574357a36643036686d39323374316d71617967756477347a663275316f6362697038386965712f7b69647d2e6a736f6e",
    "linkReferences": {}
  },
  "methodIdentifiers": {
    "CONTRACTOR_ROLE()": "f88e3204",
    "DEFAULT_ADMIN_ROLE()": "a217fddf",
    "EMPLOYER_ROLE()": "2426bb38",
    "approveCompletedBounty(string,address)": "bef7143d",
    "balanceOf(address,uint256)": "00fdd58e",
    "balanceOfBatch(address[],uint256[])": "4e1273f4",
    "claimBounty(string)": "43770275",
    "claimFunds(string)": "c4f77977",
    "completeBounty(string)": "b4b46d47",
    "createBounty(string)": "06868c4b",
    "createPrivateBounty(string,address)": "d74ea3be",
    "getClaimers(string)": "a08eda5a",
    "getRoleAdmin(bytes32)": "248a9ca3",
    "getTokenID(string)": "e706a639",
    "grantRole(bytes32,address)": "2f2ff15d",
    "grantRoleContractor()": "1ccd7910",
    "grantRoleEmployer()": "3e9b347f",
    "hasRole(bytes32,address)": "91d14854",
    "isApprovedForAll(address,address)": "e985e9c5",
    "renounceRole(bytes32,address)": "36568abe",
    "revokeRole(bytes32,address)": "d547741f",
    "revokeRoleContractor()": "61775eb0",
    "revokeRoleEmployer()": "d8eaae3c",
    "safeBatchTransferFrom(address,address,uint256[],uint256[],bytes)": "2eb2c2d6",
    "safeTransferFrom(address,address,uint256,uint256,bytes)": "f242432a",
    "setApprovalForAll(address,bool)": "a22cb465",
    "setContract(address)": "75f890ab",
    "supportsInterface(bytes4)": "01ffc9a7",
    "tokenID()": "a5c42ef1",
    "tokenIDtoClaimers(uint256,uint256)": "8b4f0496",
    "tokenIDtoDone(uint256)": "a406370a",
    "tokenIDtoIPFS(uint256)": "45149390",
    "tokenIDtoReward(uint256)": "d159a942",
    "tokenURI(string)": "4cf12d26",
    "treasury()": "61d027b3",
    "uri(uint256)": "0e89341c"
  },
  "id": 21
}