{
  "abi": [
    {
      "inputs": [],
      "stateMutability": "nonpayable",
      "type": "constructor"
    },
    {
      "anonymous": false,
      "inputs": [
        {
          "indexed": true,
          "internalType": "address",
          "name": "account",
          "type": "address"
        },
        {
          "indexed": true,
          "internalType": "address",
          "name": "operator",
          "type": "address"
        },
        {
          "indexed": false,
          "internalType": "bool",
          "name": "approved",
          "type": "bool"
        }
      ],
      "name": "ApprovalForAll",
      "type": "event"
    },
    {
      "anonymous": false,
      "inputs": [
        {
          "indexed": false,
          "internalType": "string",
          "name": "_ipfsID",
          "type": "string"
        },
        {
          "indexed": false,
          "internalType": "uint256",
          "name": "_tokenID",
          "type": "uint256"
        },
        {
          "indexed": false,
          "internalType": "uint256",
          "name": "_reward",
          "type": "uint256"
        }
      ],
      "name": "BountyCancelled",
      "type": "event"
    },
    {
      "anonymous": false,
      "inputs": [
        {
          "indexed": false,
          "internalType": "string",
          "name": "_ipfsID",
          "type": "string"
        },
        {
          "indexed": false,
          "internalType": "uint256",
          "name": "_tokenID",
          "type": "uint256"
        },
        {
          "indexed": false,
          "internalType": "uint256",
          "name": "_reward",
          "type": "uint256"
        }
      ],
      "name": "BountyClaimed",
      "type": "event"
    },
    {
      "anonymous": false,
      "inputs": [
        {
          "indexed": false,
          "internalType": "string",
          "name": "_ipfsID",
          "type": "string"
        },
        {
          "indexed": false,
          "internalType": "uint256",
          "name": "_tokenID",
          "type": "uint256"
        },
        {
          "indexed": false,
          "internalType": "uint256",
          "name": "_reward",
          "type": "uint256"
        }
      ],
      "name": "BountyCompleted",
      "type": "event"
    },
    {
      "anonymous": false,
      "inputs": [
        {
          "indexed": false,
          "internalType": "string",
          "name": "_ipfsID",
          "type": "string"
        },
        {
          "indexed": false,
          "internalType": "uint256",
          "name": "_tokenID",
          "type": "uint256"
        },
        {
          "indexed": false,
          "internalType": "uint256",
          "name": "_reward",
          "type": "uint256"
        }
      ],
      "name": "BountyCreated",
      "type": "event"
    },
    {
      "anonymous": false,
      "inputs": [
        {
          "indexed": false,
          "internalType": "string",
          "name": "_value",
          "type": "string"
        },
        {
          "indexed": true,
          "internalType": "uint256",
          "name": "_id",
          "type": "uint256"
        }
      ],
      "name": "PermanentURI",
      "type": "event"
    },
    {
      "anonymous": false,
      "inputs": [
        {
          "indexed": true,
          "internalType": "bytes32",
          "name": "role",
          "type": "bytes32"
        },
        {
          "indexed": true,
          "internalType": "bytes32",
          "name": "previousAdminRole",
          "type": "bytes32"
        },
        {
          "indexed": true,
          "internalType": "bytes32",
          "name": "newAdminRole",
          "type": "bytes32"
        }
      ],
      "name": "RoleAdminChanged",
      "type": "event"
    },
    {
      "anonymous": false,
      "inputs": [
        {
          "indexed": true,
          "internalType": "bytes32",
          "name": "role",
          "type": "bytes32"
        },
        {
          "indexed": true,
          "internalType": "address",
          "name": "account",
          "type": "address"
        },
        {
          "indexed": true,
          "internalType": "address",
          "name": "sender",
          "type": "address"
        }
      ],
      "name": "RoleGranted",
      "type": "event"
    },
    {
      "anonymous": false,
      "inputs": [
        {
          "indexed": true,
          "internalType": "bytes32",
          "name": "role",
          "type": "bytes32"
        },
        {
          "indexed": true,
          "internalType": "address",
          "name": "account",
          "type": "address"
        },
        {
          "indexed": true,
          "internalType": "address",
          "name": "sender",
          "type": "address"
        }
      ],
      "name": "RoleRevoked",
      "type": "event"
    },
    {
      "anonymous": false,
      "inputs": [
        {
          "indexed": true,
          "internalType": "address",
          "name": "operator",
          "type": "address"
        },
        {
          "indexed": true,
          "internalType": "address",
          "name": "from",
          "type": "address"
        },
        {
          "indexed": true,
          "internalType": "address",
          "name": "to",
          "type": "address"
        },
        {
          "indexed": false,
          "internalType": "uint256[]",
          "name": "ids",
          "type": "uint256[]"
        },
        {
          "indexed": false,
          "internalType": "uint256[]",
          "name": "values",
          "type": "uint256[]"
        }
      ],
      "name": "TransferBatch",
      "type": "event"
    },
    {
      "anonymous": false,
      "inputs": [
        {
          "indexed": true,
          "internalType": "address",
          "name": "operator",
          "type": "address"
        },
        {
          "indexed": true,
          "internalType": "address",
          "name": "from",
          "type": "address"
        },
        {
          "indexed": true,
          "internalType": "address",
          "name": "to",
          "type": "address"
        },
        {
          "indexed": false,
          "internalType": "uint256",
          "name": "id",
          "type": "uint256"
        },
        {
          "indexed": false,
          "internalType": "uint256",
          "name": "value",
          "type": "uint256"
        }
      ],
      "name": "TransferSingle",
      "type": "event"
    },
    {
      "anonymous": false,
      "inputs": [
        {
          "indexed": false,
          "internalType": "string",
          "name": "value",
          "type": "string"
        },
        {
          "indexed": true,
          "internalType": "uint256",
          "name": "id",
          "type": "uint256"
        }
      ],
      "name": "URI",
      "type": "event"
    },
    {
      "inputs": [],
      "name": "CONTRACTOR_ROLE",
      "outputs": [
        {
          "internalType": "bytes32",
          "name": "",
          "type": "bytes32"
        }
      ],
      "stateMutability": "view",
      "type": "function"
    },
    {
      "inputs": [],
      "name": "DEFAULT_ADMIN_ROLE",
      "outputs": [
        {
          "internalType": "bytes32",
          "name": "",
          "type": "bytes32"
        }
      ],
      "stateMutability": "view",
      "type": "function"
    },
    {
      "inputs": [],
      "name": "EMPLOYER_ROLE",
      "outputs": [
        {
          "internalType": "bytes32",
          "name": "",
          "type": "bytes32"
        }
      ],
      "stateMutability": "view",
      "type": "function"
    },
    {
      "inputs": [
        {
          "internalType": "address",
          "name": "account",
          "type": "address"
        }
      ],
      "name": "addressToString",
      "outputs": [
        {
          "internalType": "string",
          "name": "",
          "type": "string"
        }
      ],
      "stateMutability": "view",
      "type": "function"
    },
    {
      "inputs": [
        {
          "internalType": "string",
          "name": "ipfsID",
          "type": "string"
        },
        {
          "internalType": "address",
          "name": "contractor",
          "type": "address"
        }
      ],
      "name": "approveCompletedBounty",
      "outputs": [],
      "stateMutability": "nonpayable",
      "type": "function"
    },
    {
      "inputs": [
        {
          "internalType": "uint256",
          "name": "",
          "type": "uint256"
        }
      ],
      "name": "approvedBounty",
      "outputs": [
        {
          "internalType": "bool",
          "name": "",
          "type": "bool"
        }
      ],
      "stateMutability": "view",
      "type": "function"
    },
    {
      "inputs": [
        {
          "internalType": "address",
          "name": "account",
          "type": "address"
        },
        {
          "internalType": "uint256",
          "name": "id",
          "type": "uint256"
        }
      ],
      "name": "balanceOf",
      "outputs": [
        {
          "internalType": "uint256",
          "name": "",
          "type": "uint256"
        }
      ],
      "stateMutability": "view",
      "type": "function"
    },
    {
      "inputs": [
        {
          "internalType": "address[]",
          "name": "accounts",
          "type": "address[]"
        },
        {
          "internalType": "uint256[]",
          "name": "ids",
          "type": "uint256[]"
        }
      ],
      "name": "balanceOfBatch",
      "outputs": [
        {
          "internalType": "uint256[]",
          "name": "",
          "type": "uint256[]"
        }
      ],
      "stateMutability": "view",
      "type": "function"
    },
    {
      "inputs": [
        {
          "internalType": "string",
          "name": "ipfsID",
          "type": "string"
        }
      ],
      "name": "claimBounty",
      "outputs": [],
      "stateMutability": "nonpayable",
      "type": "function"
    },
    {
      "inputs": [
        {
          "internalType": "string",
          "name": "ipfsID",
          "type": "string"
        }
      ],
      "name": "claimFunds",
      "outputs": [],
      "stateMutability": "nonpayable",
      "type": "function"
    },
    {
      "inputs": [
        {
          "internalType": "string",
          "name": "",
          "type": "string"
        }
      ],
      "name": "claimedBounty",
      "outputs": [
        {
          "internalType": "bool",
          "name": "",
          "type": "bool"
        }
      ],
      "stateMutability": "view",
      "type": "function"
    },
    {
      "inputs": [
        {
          "internalType": "uint256",
          "name": "",
          "type": "uint256"
        }
      ],
      "name": "claimedReward",
      "outputs": [
        {
          "internalType": "bool",
          "name": "",
          "type": "bool"
        }
      ],
      "stateMutability": "view",
      "type": "function"
    },
    {
      "inputs": [
        {
          "internalType": "string",
          "name": "ipfsID",
          "type": "string"
        }
      ],
      "name": "completeBounty",
      "outputs": [],
      "stateMutability": "nonpayable",
      "type": "function"
    },
    {
      "inputs": [
        {
          "internalType": "uint256",
          "name": "",
          "type": "uint256"
        }
      ],
      "name": "completedBounty",
      "outputs": [
        {
          "internalType": "bool",
          "name": "",
          "type": "bool"
        }
      ],
      "stateMutability": "view",
      "type": "function"
    },
    {
      "inputs": [
        {
          "internalType": "string",
          "name": "ipfsID",
          "type": "string"
        }
      ],
      "name": "createBounty",
      "outputs": [],
      "stateMutability": "payable",
      "type": "function"
    },
    {
      "inputs": [
        {
          "internalType": "string",
          "name": "ipfsID",
          "type": "string"
        },
        {
          "internalType": "address",
          "name": "contractor",
          "type": "address"
        }
      ],
      "name": "createPrivateBounty",
      "outputs": [],
      "stateMutability": "payable",
      "type": "function"
    },
    {
      "inputs": [
        {
          "internalType": "string",
          "name": "ipfsID",
          "type": "string"
        }
      ],
      "name": "deleteBounty",
      "outputs": [],
      "stateMutability": "nonpayable",
      "type": "function"
    },
    {
      "inputs": [],
      "name": "getBounties",
      "outputs": [
        {
          "internalType": "string[]",
          "name": "",
          "type": "string[]"
        }
      ],
      "stateMutability": "view",
      "type": "function"
    },
    {
      "inputs": [
        {
          "internalType": "string",
          "name": "ipfsID",
          "type": "string"
        }
      ],
      "name": "getClaimers",
      "outputs": [
        {
          "internalType": "address[]",
          "name": "",
          "type": "address[]"
        }
      ],
      "stateMutability": "view",
      "type": "function"
    },
    {
      "inputs": [
        {
          "internalType": "bytes32",
          "name": "role",
          "type": "bytes32"
        }
      ],
      "name": "getRoleAdmin",
      "outputs": [
        {
          "internalType": "bytes32",
          "name": "",
          "type": "bytes32"
        }
      ],
      "stateMutability": "view",
      "type": "function"
    },
    {
      "inputs": [
        {
          "internalType": "string",
          "name": "ipfsID",
          "type": "string"
        }
      ],
      "name": "getStatus",
      "outputs": [
        {
          "internalType": "bool",
          "name": "",
          "type": "bool"
        }
      ],
      "stateMutability": "view",
      "type": "function"
    },
    {
      "inputs": [
        {
          "internalType": "string",
          "name": "ipfsID",
          "type": "string"
        }
      ],
      "name": "getTokenID",
      "outputs": [
        {
          "internalType": "uint256",
          "name": "",
          "type": "uint256"
        }
      ],
      "stateMutability": "view",
      "type": "function"
    },
    {
      "inputs": [
        {
          "internalType": "bytes32",
          "name": "role",
          "type": "bytes32"
        },
        {
          "internalType": "address",
          "name": "account",
          "type": "address"
        }
      ],
      "name": "grantRole",
      "outputs": [],
      "stateMutability": "nonpayable",
      "type": "function"
    },
    {
      "inputs": [],
      "name": "grantRoleContractor",
      "outputs": [],
      "stateMutability": "nonpayable",
      "type": "function"
    },
    {
      "inputs": [],
      "name": "grantRoleEmployer",
      "outputs": [],
      "stateMutability": "nonpayable",
      "type": "function"
    },
    {
      "inputs": [
        {
          "internalType": "bytes32",
          "name": "role",
          "type": "bytes32"
        },
        {
          "internalType": "address",
          "name": "account",
          "type": "address"
        }
      ],
      "name": "hasRole",
      "outputs": [
        {
          "internalType": "bool",
          "name": "",
          "type": "bool"
        }
      ],
      "stateMutability": "view",
      "type": "function"
    },
    {
      "inputs": [
        {
          "internalType": "address",
          "name": "account",
          "type": "address"
        },
        {
          "internalType": "address",
          "name": "operator",
          "type": "address"
        }
      ],
      "name": "isApprovedForAll",
      "outputs": [
        {
          "internalType": "bool",
          "name": "",
          "type": "bool"
        }
      ],
      "stateMutability": "view",
      "type": "function"
    },
    {
      "inputs": [
        {
          "internalType": "bytes32",
          "name": "role",
          "type": "bytes32"
        },
        {
          "internalType": "address",
          "name": "account",
          "type": "address"
        }
      ],
      "name": "renounceRole",
      "outputs": [],
      "stateMutability": "nonpayable",
      "type": "function"
    },
    {
      "inputs": [
        {
          "internalType": "bytes32",
          "name": "role",
          "type": "bytes32"
        },
        {
          "internalType": "address",
          "name": "account",
          "type": "address"
        }
      ],
      "name": "revokeRole",
      "outputs": [],
      "stateMutability": "nonpayable",
      "type": "function"
    },
    {
      "inputs": [
        {
          "internalType": "address",
          "name": "user",
          "type": "address"
        }
      ],
      "name": "revokeRoleContractor",
      "outputs": [],
      "stateMutability": "nonpayable",
      "type": "function"
    },
    {
      "inputs": [
        {
          "internalType": "address",
          "name": "user",
          "type": "address"
        }
      ],
      "name": "revokeRoleEmployer",
      "outputs": [],
      "stateMutability": "nonpayable",
      "type": "function"
    },
    {
      "inputs": [
        {
          "internalType": "address",
          "name": "from",
          "type": "address"
        },
        {
          "internalType": "address",
          "name": "to",
          "type": "address"
        },
        {
          "internalType": "uint256[]",
          "name": "ids",
          "type": "uint256[]"
        },
        {
          "internalType": "uint256[]",
          "name": "amounts",
          "type": "uint256[]"
        },
        {
          "internalType": "bytes",
          "name": "data",
          "type": "bytes"
        }
      ],
      "name": "safeBatchTransferFrom",
      "outputs": [],
      "stateMutability": "nonpayable",
      "type": "function"
    },
    {
      "inputs": [
        {
          "internalType": "address",
          "name": "from",
          "type": "address"
        },
        {
          "internalType": "address",
          "name": "to",
          "type": "address"
        },
        {
          "internalType": "uint256",
          "name": "id",
          "type": "uint256"
        },
        {
          "internalType": "uint256",
          "name": "amount",
          "type": "uint256"
        },
        {
          "internalType": "bytes",
          "name": "data",
          "type": "bytes"
        }
      ],
      "name": "safeTransferFrom",
      "outputs": [],
      "stateMutability": "nonpayable",
      "type": "function"
    },
    {
      "inputs": [
        {
          "internalType": "address",
          "name": "operator",
          "type": "address"
        },
        {
          "internalType": "bool",
          "name": "approved",
          "type": "bool"
        }
      ],
      "name": "setApprovalForAll",
      "outputs": [],
      "stateMutability": "nonpayable",
      "type": "function"
    },
    {
      "inputs": [
        {
          "internalType": "address",
          "name": "addr",
          "type": "address"
        }
      ],
      "name": "setContract",
      "outputs": [],
      "stateMutability": "nonpayable",
      "type": "function"
    },
    {
      "inputs": [
        {
          "internalType": "bytes4",
          "name": "interfaceId",
          "type": "bytes4"
        }
      ],
      "name": "supportsInterface",
      "outputs": [
        {
          "internalType": "bool",
          "name": "",
          "type": "bool"
        }
      ],
      "stateMutability": "view",
      "type": "function"
    },
    {
      "inputs": [],
      "name": "tokenID",
      "outputs": [
        {
          "internalType": "uint256",
          "name": "",
          "type": "uint256"
        }
      ],
      "stateMutability": "view",
      "type": "function"
    },
    {
      "inputs": [
        {
          "internalType": "uint256",
          "name": "",
          "type": "uint256"
        },
        {
          "internalType": "uint256",
          "name": "",
          "type": "uint256"
        }
      ],
      "name": "tokenIDtoClaimers",
      "outputs": [
        {
          "internalType": "address",
          "name": "",
          "type": "address"
        }
      ],
      "stateMutability": "view",
      "type": "function"
    },
    {
      "inputs": [
        {
          "internalType": "uint256",
          "name": "",
          "type": "uint256"
        }
      ],
      "name": "tokenIDtoDone",
      "outputs": [
        {
          "internalType": "bool",
          "name": "",
          "type": "bool"
        }
      ],
      "stateMutability": "view",
      "type": "function"
    },
    {
      "inputs": [
        {
          "internalType": "uint256",
          "name": "",
          "type": "uint256"
        }
      ],
      "name": "tokenIDtoIPFS",
      "outputs": [
        {
          "internalType": "string",
          "name": "",
          "type": "string"
        }
      ],
      "stateMutability": "view",
      "type": "function"
    },
    {
      "inputs": [
        {
          "internalType": "uint256",
          "name": "",
          "type": "uint256"
        }
      ],
      "name": "tokenIDtoReward",
      "outputs": [
        {
          "internalType": "uint256",
          "name": "",
          "type": "uint256"
        }
      ],
      "stateMutability": "view",
      "type": "function"
    },
    {
      "inputs": [
        {
          "internalType": "uint256",
          "name": "tokenId",
          "type": "uint256"
        }
      ],
      "name": "tokenURI",
      "outputs": [
        {
          "internalType": "string",
          "name": "",
          "type": "string"
        }
      ],
      "stateMutability": "pure",
      "type": "function"
    },
    {
      "inputs": [],
      "name": "treasury",
      "outputs": [
        {
          "internalType": "address",
          "name": "",
          "type": "address"
        }
      ],
      "stateMutability": "view",
      "type": "function"
    },
    {
      "inputs": [
        {
          "internalType": "uint256",
          "name": "",
          "type": "uint256"
        }
      ],
      "name": "uri",
      "outputs": [
        {
          "internalType": "string",
          "name": "",
          "type": "string"
        }
      ],
      "stateMutability": "view",
      "type": "function"
    }
  ],
  "bytecode": {
    "object": "0x6080604052600680546001600160a01b031916905560006007553480156200002657600080fd5b506040518060800160405280605d815260200162004143605d91396200004c8162000065565b5060016004556200005f60003362000077565b62000295565b6002620000738282620001c9565b5050565b60008281526003602090815260408083206001600160a01b038516845290915290205462000073908390839060ff16620000735760008281526003602090815260408083206001600160a01b03851684529091529020805460ff19166001179055620000e03390565b6001600160a01b0316816001600160a01b0316837f2f8788117e7eff1d82e926ec794901d17c78024a50270940304540a733656f0d60405160405180910390a45050565b634e487b7160e01b600052604160045260246000fd5b600181811c908216806200014f57607f821691505b6020821081036200017057634e487b7160e01b600052602260045260246000fd5b50919050565b601f821115620001c457600081815260208120601f850160051c810160208610156200019f5750805b601f850160051c820191505b81811015620001c057828155600101620001ab565b5050505b505050565b81516001600160401b03811115620001e557620001e562000124565b620001fd81620001f684546200013a565b8462000176565b602080601f8311600181146200023557600084156200021c5750858301515b600019600386901b1c1916600185901b178555620001c0565b600085815260208120601f198616915b82811015620002665788860151825594840194600190910190840162000245565b5085821015620002855787850151600019600388901b60f8161c191681555b5050505050600190811b01905550565b613e9e80620002a56000396000f3fe6080604052600436106102665760003560e01c80638b4f049611610144578063bef7143d116100b6578063d74ea3be1161007a578063d74ea3be146107d3578063dd57f1ad146107e6578063e706a63914610806578063e985e9c514610826578063f242432a1461086f578063f88e32041461088f57600080fd5b8063bef7143d14610726578063c4f7797714610746578063c87b56dd14610766578063d159a94214610786578063d547741f146107b357600080fd5b8063a217fddf11610108578063a217fddf1461066b578063a22cb46514610680578063a256730d146106a0578063a406370a146106c0578063a5c42ef1146106f0578063b4b46d471461070657600080fd5b80638b4f04961461059357806391d14854146105b357806392323ee5146105d35780639e45ebf914610603578063a08eda5a1461063e57600080fd5b80632f2ff15d116101dd57806345149390116101a1578063451493901461049e5780634a53b76c146104be5780634e1273f4146104ee5780635e57966d1461051b57806361d027b31461053b57806375f890ab1461057357600080fd5b80632f2ff15d146103f957806336568abe146104195780633d6d3410146104395780633e9b347f14610469578063437702751461047e57600080fd5b80631ccd79101161022f5780631ccd7910146103325780631e84bdd31461034757806322b05ed2146103675780632426bb3814610387578063248a9ca3146103a95780632eb2c2d6146103d957600080fd5b8062fdd58e1461026b57806301ffc9a71461029e57806306868c4b146102ce5780630cf0ac1d146102e35780630e89341c14610305575b600080fd5b34801561027757600080fd5b5061028b61028636600461303e565b6108b1565b6040519081526020015b60405180910390f35b3480156102aa57600080fd5b506102be6102b936600461307e565b610947565b6040519015158152602001610295565b6102e16102dc366004613150565b610958565b005b3480156102ef57600080fd5b506102f8610b0c565b60405161029591906131e0565b34801561031157600080fd5b50610325610320366004613242565b610cb3565b604051610295919061325b565b34801561033e57600080fd5b506102e1610d47565b34801561035357600080fd5b506102e161036236600461326e565b610dc6565b34801561037357600080fd5b506102be610382366004613150565b610e31565b34801561039357600080fd5b5061028b600080516020613df683398151915281565b3480156103b557600080fd5b5061028b6103c4366004613242565b60009081526003602052604090206001015490565b3480156103e557600080fd5b506102e16103f436600461331d565b610eb3565b34801561040557600080fd5b506102e16104143660046133c6565b610eff565b34801561042557600080fd5b506102e16104343660046133c6565b610f29565b34801561044557600080fd5b506102be610454366004613242565b600d6020526000908152604090205460ff1681565b34801561047557600080fd5b506102e1610fa7565b34801561048a57600080fd5b506102e1610499366004613150565b611024565b3480156104aa57600080fd5b506103256104b9366004613242565b611209565b3480156104ca57600080fd5b506102be6104d9366004613242565b600c6020526000908152604090205460ff1681565b3480156104fa57600080fd5b5061050e6105093660046133f2565b6112a3565b60405161029591906134f7565b34801561052757600080fd5b5061032561053636600461326e565b6113cc565b34801561054757600080fd5b5060065461055b906001600160a01b031681565b6040516001600160a01b039091168152602001610295565b34801561057f57600080fd5b506102e161058e36600461326e565b6113e8565b34801561059f57600080fd5b5061055b6105ae36600461350a565b611461565b3480156105bf57600080fd5b506102be6105ce3660046133c6565b611499565b3480156105df57600080fd5b506102be6105ee366004613242565b600f6020526000908152604090205460ff1681565b34801561060f57600080fd5b506102be61061e366004613150565b8051602081830181018051600e8252928201919093012091525460ff1681565b34801561064a57600080fd5b5061065e610659366004613150565b6114c4565b604051610295919061352c565b34801561067757600080fd5b5061028b600081565b34801561068c57600080fd5b506102e161069b366004613579565b61159d565b3480156106ac57600080fd5b506102e16106bb366004613150565b6115a8565b3480156106cc57600080fd5b506102be6106db366004613242565b600b6020526000908152604090205460ff1681565b3480156106fc57600080fd5b5061028b60075481565b34801561071257600080fd5b506102e1610721366004613150565b6116e7565b34801561073257600080fd5b506102e16107413660046135b5565b6119ee565b34801561075257600080fd5b506102e1610761366004613150565b611bb4565b34801561077257600080fd5b50610325610781366004613242565b611e21565b34801561079257600080fd5b5061028b6107a1366004613242565b60096020526000908152604090205481565b3480156107bf57600080fd5b506102e16107ce3660046133c6565b611e6b565b6102e16107e13660046135b5565b611e90565b3480156107f257600080fd5b506102e161080136600461326e565b612066565b34801561081257600080fd5b5061028b610821366004613150565b6120ce565b34801561083257600080fd5b506102be6108413660046135f9565b6001600160a01b03918216600090815260016020908152604080832093909416825291909152205460ff1690565b34801561087b57600080fd5b506102e161088a366004613623565b6121a1565b34801561089b57600080fd5b5061028b600080516020613dd683398151915281565b60006001600160a01b0383166109215760405162461bcd60e51b815260206004820152602a60248201527f455243313135353a2061646472657373207a65726f206973206e6f742061207660448201526930b634b21037bbb732b960b11b60648201526084015b60405180910390fd5b506000908152602081815260408083206001600160a01b03949094168352929052205490565b6000610952826121e6565b92915050565b610970600080516020613df683398151915233611499565b6109b85760405162461bcd60e51b815260206004820152601960248201527821b0b63632b91034b9903737ba1030b71032b6b83637bcb2b960391b6044820152606401610918565b600034116109d85760405162461bcd60e51b815260040161091890613687565b6006546007546040805160208101909152600081523492610a07926001600160a01b039091169160019061220b565b6006546040516001600160a01b039091169082156108fc029083906000818181858888f19350505050158015610a41573d6000803e3d6000fd5b506007546000908152600860205260409020610a5d8382613746565b506007805460009081526009602052604090819020839055905490517fd03c9595063e238ef5abf908f74cfe2963bc5c60cde40d8f99f13d8bc6cd9be291610aa9918591908590613805565b60405180910390a16007547fa109ba539900bf1b633f956d63c96fc89b814c7287f7aa50a9216d0b55657207610ade82611e21565b604051610aeb919061325b565b60405180910390a260078054906000610b0383613840565b91905055505050565b606060006007546001600160401b03811115610b2a57610b2a61309b565b604051908082528060200260200182016040528015610b5d57816020015b6060815260200190600190039081610b485790505b50905060005b6007548111610cad57600654604051627eeac760e11b81526001600160a01b03909116600482015260248101829052600090309062fdd58e90604401602060405180830381865afa158015610bbc573d6000803e3d6000fd5b505050506040513d601f19601f82011682018060405250810190610be09190613859565b1115610c9b5760008181526008602052604090208054610bff906136cc565b80601f0160208091040260200160405190810160405280929190818152602001828054610c2b906136cc565b8015610c785780601f10610c4d57610100808354040283529160200191610c78565b820191906000526020600020905b815481529060010190602001808311610c5b57829003601f168201915b5050505050828281518110610c8f57610c8f613872565b60200260200101819052505b80610ca581613840565b915050610b63565b50919050565b606060028054610cc2906136cc565b80601f0160208091040260200160405190810160405280929190818152602001828054610cee906136cc565b8015610d3b5780601f10610d1057610100808354040283529160200191610d3b565b820191906000526020600020905b815481529060010190602001808311610d1e57829003601f168201915b50505050509050919050565b610d5f600080516020613df683398151915233611499565b15610dac5760405162461bcd60e51b815260206004820152601d60248201527f43616c6c657220697320616c726561647920616e20656d706c6f7965720000006044820152606401610918565b610dc4600080516020613dd683398151915233612316565b565b610dd1600033611499565b610e165760405162461bcd60e51b815260206004820152601660248201527521b0b63632b91034b9903737ba1030b71030b236b4b760511b6044820152606401610918565b610e2e600080516020613df683398151915282611e6b565b50565b60405163e706a63960e01b81526000908190309063e706a63990610e5990869060040161325b565b602060405180830381865afa158015610e76573d6000803e3d6000fd5b505050506040513d601f19601f82011682018060405250810190610e9a9190613859565b6000908152600b602052604090205460ff169392505050565b6001600160a01b038516331480610ecf5750610ecf8533610841565b610eeb5760405162461bcd60e51b815260040161091890613888565b610ef88585858585612320565b5050505050565b600082815260036020526040902060010154610f1a816124fd565b610f248383612507565b505050565b6001600160a01b0381163314610f995760405162461bcd60e51b815260206004820152602f60248201527f416363657373436f6e74726f6c3a2063616e206f6e6c792072656e6f756e636560448201526e103937b632b9903337b91039b2b63360891b6064820152608401610918565b610fa3828261258d565b5050565b610fbf600080516020613dd683398151915233611499565b1561100c5760405162461bcd60e51b815260206004820152601e60248201527f43616c6c657220697320616c7265616479206120636f6e74726163746f7200006044820152606401610918565b610dc4600080516020613df683398151915233612316565b61103c600080516020613dd683398151915233611499565b6110585760405162461bcd60e51b8152600401610918906138d6565b60405163e706a63960e01b8152600090309063e706a6399061107e90859060040161325b565b602060405180830381865afa15801561109b573d6000803e3d6000fd5b505050506040513d601f19601f820116820180604052508101906110bf9190613859565b9050600e6110e5836110d0336113cc565b604051806020016040528060008152506125f4565b6040516110f2919061390d565b9081526040519081900360200190205460ff16156111525760405162461bcd60e51b815260206004820152601f60248201527f426f756e74792068617320616c7265616479206265656e20636c61696d6564006044820152606401610918565b6001600e611163846110d0336113cc565b604051611170919061390d565b9081526040805160209281900383018120805460ff1916941515949094179093556000848152600a83528181208054600181018255908252838220018054336001600160a01b031990911617905584815260088352818120600990935220547fc7f5957ad976140878015d285fd47bebc799a9a4a33a8b17efd687a9b1434a30926111fd92918591613929565b60405180910390a15050565b60086020526000908152604090208054611222906136cc565b80601f016020809104026020016040519081016040528092919081815260200182805461124e906136cc565b801561129b5780601f106112705761010080835404028352916020019161129b565b820191906000526020600020905b81548152906001019060200180831161127e57829003601f168201915b505050505081565b606081518351146113085760405162461bcd60e51b815260206004820152602960248201527f455243313135353a206163636f756e747320616e6420696473206c656e677468604482015268040dad2e6dac2e8c6d60bb1b6064820152608401610918565b600083516001600160401b038111156113235761132361309b565b60405190808252806020026020018201604052801561134c578160200160208202803683370190505b50905060005b84518110156113c45761139785828151811061137057611370613872565b602002602001015185838151811061138a5761138a613872565b60200260200101516108b1565b8282815181106113a9576113a9613872565b60209081029190910101526113bd81613840565b9050611352565b509392505050565b60606001600160a01b0382166113e181612623565b9392505050565b6113f3600033611499565b61143f5760405162461bcd60e51b815260206004820152601760248201527f43616c6c6572206973206e6f74207468652061646d696e0000000000000000006044820152606401610918565b600680546001600160a01b0319166001600160a01b0392909216919091179055565b600a602052816000526040600020818154811061147d57600080fd5b6000918252602090912001546001600160a01b03169150829050565b60009182526003602090815260408084206001600160a01b0393909316845291905290205460ff1690565b60405163e706a63960e01b8152606090600090309063e706a639906114ed90869060040161325b565b602060405180830381865afa15801561150a573d6000803e3d6000fd5b505050506040513d601f19601f8201168201806040525081019061152e9190613859565b6000818152600a6020908152604091829020805483518184028101840190945280845293945091929083018282801561159057602002820191906000526020600020905b81546001600160a01b03168152600190910190602001808311611572575b5050505050915050919050565b610fa333838361272b565b6115c0600080516020613df683398151915233611499565b6116075760405162461bcd60e51b815260206004820152601860248201527721b0b63632b91034b9903737ba10309032b6b83637bcb2b960411b6044820152606401610918565b60405163e706a63960e01b8152600090309063e706a6399061162d90859060040161325b565b602060405180830381865afa15801561164a573d6000803e3d6000fd5b505050506040513d601f19601f8201168201806040525081019061166e9190613859565b60065490915060019061168a906001600160a01b0316836108b1565b10156116cf5760405162461bcd60e51b8152602060048201526014602482015273426f756e7479206e6f7420617661696c61626c6560601b6044820152606401610918565b600654610fa3906001600160a01b031682600161280b565b6116ff600080516020613dd683398151915233611499565b61171b5760405162461bcd60e51b8152600401610918906138d6565b60405163e706a63960e01b8152600090309063e706a6399061174190859060040161325b565b602060405180830381865afa15801561175e573d6000803e3d6000fd5b505050506040513d601f19601f820116820180604052508101906117829190613859565b6000818152600d602052604090205490915060ff16156117ee5760405162461bcd60e51b815260206004820152602160248201527f426f756e74792068617320616c7265616479206265656e20636f6d706c6574656044820152601960fa1b6064820152608401610918565b6000818152600d60209081526040808320805460ff19166001179055600a82528083208054825181850281018501909352808352919290919083018282801561186057602002820191906000526020600020905b81546001600160a01b03168152600190910190602001808311611842575b509394506000935050505060005b82518110156118b65761189a83828151811061188c5761188c613872565b602002602001015133612987565b156118a457600191505b806118ae81613840565b91505061186e565b50806119045760405162461bcd60e51b815260206004820152601e60248201527f43616c6c6572206973206e6f74206120626f756e747920636c61696d657200006044820152606401610918565b6000838152600b602052604090205460ff166119325760405162461bcd60e51b8152600401610918906139bf565b60065460405163f3fef3a360e01b8152336004820152602481018590526001600160a01b039091169063f3fef3a390604401600060405180830381600087803b15801561197e57600080fd5b505af1158015611992573d6000803e3d6000fd5b50505060008481526008602090815260408083206009909252918290205491517ff9d5b8621260e8c7e877bcee0fc9f0e573e710ba890884275d67dcfc19e0b05693506119e0928791613929565b60405180910390a150505050565b611a06600080516020613df683398151915233611499565b611a4d5760405162461bcd60e51b815260206004820152601860248201527721b0b63632b91034b9903737ba10309032b6b83637bcb2b960411b6044820152606401610918565b60405163e706a63960e01b8152600090309063e706a63990611a7390869060040161325b565b602060405180830381865afa158015611a90573d6000803e3d6000fd5b505050506040513d601f19601f82011682018060405250810190611ab49190613859565b6000818152600f602052604090205490915060ff1615611b165760405162461bcd60e51b815260206004820181905260248201527f426f756e74792068617320616c7265616479206265656e20617070726f7665646044820152606401610918565b6000818152600f602090815260408083208054600160ff199182168117909255600b9093529281902080549092169092179055600654905163131f8abb60e31b81526001600160a01b03848116600483015260248201849052909116906398fc55d8906044015b600060405180830381600087803b158015611b9757600080fd5b505af1158015611bab573d6000803e3d6000fd5b50505050505050565b60405163e706a63960e01b8152600090309063e706a63990611bda90859060040161325b565b602060405180830381865afa158015611bf7573d6000803e3d6000fd5b505050506040513d601f19601f82011682018060405250810190611c1b9190613859565b6000818152600c602052604090205490915060ff1615611c935760405162461bcd60e51b815260206004820152602d60248201527f5468697320626f756e74792072657761726473206861766520616c726561647960448201526c081899595b8818db185a5b5959609a1b6064820152608401610918565b6000818152600c60205260409020805460ff19166001179055611cc4600080516020613dd683398151915233611499565b611ce05760405162461bcd60e51b8152600401610918906138d6565b6000818152600b602052604090205460ff16611d0e5760405162461bcd60e51b8152600401610918906139bf565b6001611d1a33836108b1565b1015611d765760405162461bcd60e51b815260206004820152602560248201527f596f752068617665206e6f7420636f6d706c657465642074686520426f756e746044820152641e481e595d60da1b6064820152608401610918565b600081815260096020526040812054906002906064611d958385613a10565b611d9f9190613a45565b90506000611dad8285613a59565b600654604051631f58fee360e11b815233600482015260248101889052604481018390529192506001600160a01b031690633eb1fdc690606401600060405180830381600087803b158015611e0157600080fd5b505af1158015611e15573d6000803e3d6000fd5b50505050505050505050565b6060610952604051806080016040528060538152602001613e1660539139611e4884612623565b60405180604001604052806005815260200164173539b7b760d91b8152506125f4565b600082815260036020526040902060010154611e86816124fd565b610f24838361258d565b611ea8600080516020613df683398151915233611499565b611ef05760405162461bcd60e51b815260206004820152601960248201527821b0b63632b91034b9903737ba1030b71032b6b83637bcb2b960391b6044820152606401610918565b60003411611f105760405162461bcd60e51b815260040161091890613687565b6006546007546040805160208101909152600081523492611f3f926001600160a01b039091169160019061220b565b6006546040516001600160a01b039091169082156108fc029083906000818181858888f19350505050158015611f79573d6000803e3d6000fd5b506007546000908152600860205260409020611f958482613746565b507fd03c9595063e238ef5abf908f74cfe2963bc5c60cde40d8f99f13d8bc6cd9be28360075483604051611fcb93929190613805565b60405180910390a16007547fa109ba539900bf1b633f956d63c96fc89b814c7287f7aa50a9216d0b5565720761200082611e21565b60405161200d919061325b565b60405180910390a26007805490600061202583613840565b909155505060065460075460405163131f8abb60e31b81526001600160a01b03858116600483015260248201929092529116906398fc55d890604401611b7d565b612071600033611499565b6120b65760405162461bcd60e51b815260206004820152601660248201527521b0b63632b91034b9903737ba1030b71030b236b4b760511b6044820152606401610918565b610e2e600080516020613dd683398151915282611e6b565b60008060005b600754811161219a576000818152600860205260409020805461217f91906120fb906136cc565b80601f0160208091040260200160405190810160405280929190818152602001828054612127906136cc565b80156121745780601f1061214957610100808354040283529160200191612174565b820191906000526020600020905b81548152906001019060200180831161215757829003601f168201915b505050505085612a07565b15612188578091505b8061219281613840565b9150506120d4565b5092915050565b6001600160a01b0385163314806121bd57506121bd8533610841565b6121d95760405162461bcd60e51b815260040161091890613888565b610ef88585858585612a41565b60006001600160e01b03198216637965db0b60e01b1480610952575061095282612b6b565b6001600160a01b03841661226b5760405162461bcd60e51b815260206004820152602160248201527f455243313135353a206d696e7420746f20746865207a65726f206164647265736044820152607360f81b6064820152608401610918565b33600061227785612bbb565b9050600061228485612bbb565b90506000868152602081815260408083206001600160a01b038b168452909152812080548792906122b6908490613a70565b909155505060408051878152602081018790526001600160a01b03808a1692600092918716917fc3d58168c5ae7397731d063d5bbf3d657854427343f4c083240f7aacaa2d0f62910160405180910390a4611bab83600089898989612c06565b610fa38282612507565b81518351146123825760405162461bcd60e51b815260206004820152602860248201527f455243313135353a2069647320616e6420616d6f756e7473206c656e677468206044820152670dad2e6dac2e8c6d60c31b6064820152608401610918565b6001600160a01b0384166123a85760405162461bcd60e51b815260040161091890613a88565b3360005b845181101561248f5760008582815181106123c9576123c9613872565b6020026020010151905060008583815181106123e7576123e7613872565b602090810291909101810151600084815280835260408082206001600160a01b038e1683529093529190912054909150818110156124375760405162461bcd60e51b815260040161091890613acd565b6000838152602081815260408083206001600160a01b038e8116855292528083208585039055908b16825281208054849290612474908490613a70565b925050819055505050508061248890613840565b90506123ac565b50846001600160a01b0316866001600160a01b0316826001600160a01b03167f4a39dc06d4c0dbc64b70af90fd698a233a518aa5d07e595d983b8c0526c8f7fb87876040516124df929190613b17565b60405180910390a46124f5818787878787612d61565b505050505050565b610e2e8133612e1c565b6125118282611499565b610fa35760008281526003602090815260408083206001600160a01b03851684529091529020805460ff191660011790556125493390565b6001600160a01b0316816001600160a01b0316837f2f8788117e7eff1d82e926ec794901d17c78024a50270940304540a733656f0d60405160405180910390a45050565b6125978282611499565b15610fa35760008281526003602090815260408083206001600160a01b0385168085529252808320805460ff1916905551339285917ff6391f5c32d9c69d2a47ea670b442974b53935d1edc7fd64eb21e047a839171b9190a45050565b606083838360405160200161260b93929190613b45565b60405160208183030381529060405290509392505050565b60608160000361264a5750506040805180820190915260018152600360fc1b602082015290565b8160005b8115612674578061265e81613840565b915061266d9050600a83613a45565b915061264e565b6000816001600160401b0381111561268e5761268e61309b565b6040519080825280601f01601f1916602001820160405280156126b8576020820181803683370190505b5090505b8415612723576126cd600183613a59565b91506126da600a86613b88565b6126e5906030613a70565b60f81b8183815181106126fa576126fa613872565b60200101906001600160f81b031916908160001a90535061271c600a86613a45565b94506126bc565b949350505050565b816001600160a01b0316836001600160a01b03160361279e5760405162461bcd60e51b815260206004820152602960248201527f455243313135353a2073657474696e6720617070726f76616c20737461747573604482015268103337b91039b2b63360b91b6064820152608401610918565b6001600160a01b03838116600081815260016020908152604080832094871680845294825291829020805460ff191686151590811790915591519182527f17307eab39ab6107e8899845ad3d59bd9653f200f220920489ca2b5937696c31910160405180910390a3505050565b6001600160a01b03831661286d5760405162461bcd60e51b815260206004820152602360248201527f455243313135353a206275726e2066726f6d20746865207a65726f206164647260448201526265737360e81b6064820152608401610918565b33600061287984612bbb565b9050600061288684612bbb565b60408051602080820183526000918290528882528181528282206001600160a01b038b168352905220549091508481101561290f5760405162461bcd60e51b8152602060048201526024808201527f455243313135353a206275726e20616d6f756e7420657863656564732062616c604482015263616e636560e01b6064820152608401610918565b6000868152602081815260408083206001600160a01b038b81168086529184528285208a8703905582518b81529384018a90529092908816917fc3d58168c5ae7397731d063d5bbf3d657854427343f4c083240f7aacaa2d0f62910160405180910390a4604080516020810190915260009052611bab565b6040516bffffffffffffffffffffffff19606083901b16602082015260009060340160405160208183030381529060405280519060200120836040516020016129e8919060609190911b6bffffffffffffffffffffffff1916815260140190565b6040516020818303038152906040528051906020012014905092915050565b600081604051602001612a1a919061390d565b60405160208183030381529060405280519060200120836040516020016129e8919061390d565b6001600160a01b038416612a675760405162461bcd60e51b815260040161091890613a88565b336000612a7385612bbb565b90506000612a8085612bbb565b90506000868152602081815260408083206001600160a01b038c16845290915290205485811015612ac35760405162461bcd60e51b815260040161091890613acd565b6000878152602081815260408083206001600160a01b038d8116855292528083208985039055908a16825281208054889290612b00908490613a70565b909155505060408051888152602081018890526001600160a01b03808b16928c821692918816917fc3d58168c5ae7397731d063d5bbf3d657854427343f4c083240f7aacaa2d0f62910160405180910390a4612b60848a8a8a8a8a612c06565b505050505050505050565b60006001600160e01b03198216636cdb3d1360e11b1480612b9c57506001600160e01b031982166303a24d0760e21b145b8061095257506301ffc9a760e01b6001600160e01b0319831614610952565b60408051600180825281830190925260609160009190602080830190803683370190505090508281600081518110612bf557612bf5613872565b602090810291909101015292915050565b6001600160a01b0384163b156124f55760405163f23a6e6160e01b81526001600160a01b0385169063f23a6e6190612c4a9089908990889088908890600401613b9c565b6020604051808303816000875af1925050508015612c85575060408051601f3d908101601f19168201909252612c8291810190613be1565b60015b612d3157612c91613bfe565b806308c379a003612cca5750612ca5613c1a565b80612cb05750612ccc565b8060405162461bcd60e51b8152600401610918919061325b565b505b60405162461bcd60e51b815260206004820152603460248201527f455243313135353a207472616e7366657220746f206e6f6e2d455243313135356044820152732932b1b2b4bb32b91034b6b83632b6b2b73a32b960611b6064820152608401610918565b6001600160e01b0319811663f23a6e6160e01b14611bab5760405162461bcd60e51b815260040161091890613ca3565b6001600160a01b0384163b156124f55760405163bc197c8160e01b81526001600160a01b0385169063bc197c8190612da59089908990889088908890600401613ceb565b6020604051808303816000875af1925050508015612de0575060408051601f3d908101601f19168201909252612ddd91810190613be1565b60015b612dec57612c91613bfe565b6001600160e01b0319811663bc197c8160e01b14611bab5760405162461bcd60e51b815260040161091890613ca3565b612e268282611499565b610fa357612e3381612e75565b612e3e836020612e87565b604051602001612e4f929190613d49565b60408051601f198184030181529082905262461bcd60e51b82526109189160040161325b565b60606109526001600160a01b03831660145b60606000612e96836002613a10565b612ea1906002613a70565b6001600160401b03811115612eb857612eb861309b565b6040519080825280601f01601f191660200182016040528015612ee2576020820181803683370190505b509050600360fc1b81600081518110612efd57612efd613872565b60200101906001600160f81b031916908160001a905350600f60fb1b81600181518110612f2c57612f2c613872565b60200101906001600160f81b031916908160001a9053506000612f50846002613a10565b612f5b906001613a70565b90505b6001811115612fd3576f181899199a1a9b1b9c1cb0b131b232b360811b85600f1660108110612f8f57612f8f613872565b1a60f81b828281518110612fa557612fa5613872565b60200101906001600160f81b031916908160001a90535060049490941c93612fcc81613dbe565b9050612f5e565b5083156113e15760405162461bcd60e51b815260206004820181905260248201527f537472696e67733a20686578206c656e67746820696e73756666696369656e746044820152606401610918565b80356001600160a01b038116811461303957600080fd5b919050565b6000806040838503121561305157600080fd5b61305a83613022565b946020939093013593505050565b6001600160e01b031981168114610e2e57600080fd5b60006020828403121561309057600080fd5b81356113e181613068565b634e487b7160e01b600052604160045260246000fd5b601f8201601f191681016001600160401b03811182821017156130d6576130d661309b565b6040525050565b600082601f8301126130ee57600080fd5b81356001600160401b038111156131075761310761309b565b60405161311e601f8301601f1916602001826130b1565b81815284602083860101111561313357600080fd5b816020850160208301376000918101602001919091529392505050565b60006020828403121561316257600080fd5b81356001600160401b0381111561317857600080fd5b612723848285016130dd565b60005b8381101561319f578181015183820152602001613187565b838111156131ae576000848401525b50505050565b600081518084526131cc816020860160208601613184565b601f01601f19169290920160200192915050565b6000602080830181845280855180835260408601915060408160051b870101925083870160005b8281101561323557603f198886030184526132238583516131b4565b94509285019290850190600101613207565b5092979650505050505050565b60006020828403121561325457600080fd5b5035919050565b6020815260006113e160208301846131b4565b60006020828403121561328057600080fd5b6113e182613022565b60006001600160401b038211156132a2576132a261309b565b5060051b60200190565b600082601f8301126132bd57600080fd5b813560206132ca82613289565b6040516132d782826130b1565b83815260059390931b85018201928281019150868411156132f757600080fd5b8286015b8481101561331257803583529183019183016132fb565b509695505050505050565b600080600080600060a0868803121561333557600080fd5b61333e86613022565b945061334c60208701613022565b935060408601356001600160401b038082111561336857600080fd5b61337489838a016132ac565b9450606088013591508082111561338a57600080fd5b61339689838a016132ac565b935060808801359150808211156133ac57600080fd5b506133b9888289016130dd565b9150509295509295909350565b600080604083850312156133d957600080fd5b823591506133e960208401613022565b90509250929050565b6000806040838503121561340557600080fd5b82356001600160401b038082111561341c57600080fd5b818501915085601f83011261343057600080fd5b8135602061343d82613289565b60405161344a82826130b1565b83815260059390931b850182019282810191508984111561346a57600080fd5b948201945b8386101561348f5761348086613022565b8252948201949082019061346f565b965050860135925050808211156134a557600080fd5b506134b2858286016132ac565b9150509250929050565b600081518084526020808501945080840160005b838110156134ec578151875295820195908201906001016134d0565b509495945050505050565b6020815260006113e160208301846134bc565b6000806040838503121561351d57600080fd5b50508035926020909101359150565b6020808252825182820181905260009190848201906040850190845b8181101561356d5783516001600160a01b031683529284019291840191600101613548565b50909695505050505050565b6000806040838503121561358c57600080fd5b61359583613022565b9150602083013580151581146135aa57600080fd5b809150509250929050565b600080604083850312156135c857600080fd5b82356001600160401b038111156135de57600080fd5b6135ea858286016130dd565b9250506133e960208401613022565b6000806040838503121561360c57600080fd5b61361583613022565b91506133e960208401613022565b600080600080600060a0868803121561363b57600080fd5b61364486613022565b945061365260208701613022565b9350604086013592506060860135915060808601356001600160401b0381111561367b57600080fd5b6133b9888289016130dd565b60208082526025908201527f506c6561736520646566696e6520612072657761726420666f722074686520426040820152646f756e747960d81b606082015260800190565b600181811c908216806136e057607f821691505b602082108103610cad57634e487b7160e01b600052602260045260246000fd5b601f821115610f2457600081815260208120601f850160051c810160208610156137275750805b601f850160051c820191505b818110156124f557828155600101613733565b81516001600160401b0381111561375f5761375f61309b565b6137738161376d84546136cc565b84613700565b602080601f8311600181146137a857600084156137905750858301515b600019600386901b1c1916600185901b1785556124f5565b600085815260208120601f198616915b828110156137d7578886015182559484019460019091019084016137b8565b50858210156137f55787850151600019600388901b60f8161c191681555b5050505050600190811b01905550565b60608152600061381860608301866131b4565b60208301949094525060400152919050565b634e487b7160e01b600052601160045260246000fd5b6000600182016138525761385261382a565b5060010190565b60006020828403121561386b57600080fd5b5051919050565b634e487b7160e01b600052603260045260246000fd5b6020808252602e908201527f455243313135353a2063616c6c6572206973206e6f7420746f6b656e206f776e60408201526d195c881bdc88185c1c1c9bdd995960921b606082015260800190565b6020808252601a908201527f43616c6c6572206973206e6f74206120636f6e74726163746f72000000000000604082015260600190565b6000825161391f818460208701613184565b9190910192915050565b60608152600080855461393b816136cc565b806060860152608060018084166000811461395d5760018114613977576139a8565b60ff1985168884015283151560051b8801830195506139a8565b8a60005260208060002060005b8681101561399f5781548b8201870152908401908201613984565b8a018501975050505b505050505060208301949094525060400152919050565b60208082526031908201527f426f756e747920636f6d706c6574696f6e206973206e6f7420617070726f76656040820152703210313c903a34329032b6b83637bcb2b960791b606082015260800190565b6000816000190483118215151615613a2a57613a2a61382a565b500290565b634e487b7160e01b600052601260045260246000fd5b600082613a5457613a54613a2f565b500490565b600082821015613a6b57613a6b61382a565b500390565b60008219821115613a8357613a8361382a565b500190565b60208082526025908201527f455243313135353a207472616e7366657220746f20746865207a65726f206164604082015264647265737360d81b606082015260800190565b6020808252602a908201527f455243313135353a20696e73756666696369656e742062616c616e636520666f60408201526939103a3930b739b332b960b11b606082015260800190565b604081526000613b2a60408301856134bc565b8281036020840152613b3c81856134bc565b95945050505050565b60008451613b57818460208901613184565b845190830190613b6b818360208901613184565b8451910190613b7e818360208801613184565b0195945050505050565b600082613b9757613b97613a2f565b500690565b6001600160a01b03868116825285166020820152604081018490526060810183905260a060808201819052600090613bd6908301846131b4565b979650505050505050565b600060208284031215613bf357600080fd5b81516113e181613068565b600060033d1115613c175760046000803e5060005160e01c5b90565b600060443d1015613c285790565b6040516003193d81016004833e81513d6001600160401b038160248401118184111715613c5757505050505090565b8285019150815181811115613c6f5750505050505090565b843d8701016020828501011115613c895750505050505090565b613c98602082860101876130b1565b509095945050505050565b60208082526028908201527f455243313135353a204552433131353552656365697665722072656a656374656040820152676420746f6b656e7360c01b606082015260800190565b6001600160a01b0386811682528516602082015260a060408201819052600090613d17908301866134bc565b8281036060840152613d2981866134bc565b90508281036080840152613d3d81856131b4565b98975050505050505050565b7f416363657373436f6e74726f6c3a206163636f756e7420000000000000000000815260008351613d81816017850160208801613184565b7001034b99036b4b9b9b4b733903937b6329607d1b6017918401918201528351613db2816028840160208801613184565b01602801949350505050565b600081613dcd57613dcd61382a565b50600019019056feef28dcbf06eb73add8f77665c46a6263e719f928f9c34710ec1097573ba6e20cfc7c36207174f786648d2e624616a4b40e15fd7f0268b4e36af5057f0c43c83568747470733a2f2f697066732e696f2f69706e732f6b3531717a693575717535646969746272306b7977326a7574357a36643036686d39323374316d71617967756477347a663275316f636269703838696571a26469706673582212202d221764c9fc23a679dc291e46eb90894ac9ffc911654a716bc7e76377bc5ec264736f6c634300080f003368747470733a2f2f697066732e696f2f69706e732f6b3531717a693575717535646969746272306b7977326a7574357a36643036686d39323374316d71617967756477347a663275316f6362697038386965712f7b69647d2e6a736f6e",
    "linkReferences": {}
  },
  "methodIdentifiers": {
    "CONTRACTOR_ROLE()": "f88e3204",
    "DEFAULT_ADMIN_ROLE()": "a217fddf",
    "EMPLOYER_ROLE()": "2426bb38",
    "addressToString(address)": "5e57966d",
    "approveCompletedBounty(string,address)": "bef7143d",
    "approvedBounty(uint256)": "92323ee5",
    "balanceOf(address,uint256)": "00fdd58e",
    "balanceOfBatch(address[],uint256[])": "4e1273f4",
    "claimBounty(string)": "43770275",
    "claimFunds(string)": "c4f77977",
    "claimedBounty(string)": "9e45ebf9",
    "claimedReward(uint256)": "4a53b76c",
    "completeBounty(string)": "b4b46d47",
    "completedBounty(uint256)": "3d6d3410",
    "createBounty(string)": "06868c4b",
    "createPrivateBounty(string,address)": "d74ea3be",
    "deleteBounty(string)": "a256730d",
    "getBounties()": "0cf0ac1d",
    "getClaimers(string)": "a08eda5a",
    "getRoleAdmin(bytes32)": "248a9ca3",
    "getStatus(string)": "22b05ed2",
    "getTokenID(string)": "e706a639",
    "grantRole(bytes32,address)": "2f2ff15d",
    "grantRoleContractor()": "1ccd7910",
    "grantRoleEmployer()": "3e9b347f",
    "hasRole(bytes32,address)": "91d14854",
    "isApprovedForAll(address,address)": "e985e9c5",
    "renounceRole(bytes32,address)": "36568abe",
    "revokeRole(bytes32,address)": "d547741f",
    "revokeRoleContractor(address)": "dd57f1ad",
    "revokeRoleEmployer(address)": "1e84bdd3",
    "safeBatchTransferFrom(address,address,uint256[],uint256[],bytes)": "2eb2c2d6",
    "safeTransferFrom(address,address,uint256,uint256,bytes)": "f242432a",
    "setApprovalForAll(address,bool)": "a22cb465",
    "setContract(address)": "75f890ab",
    "supportsInterface(bytes4)": "01ffc9a7",
    "tokenID()": "a5c42ef1",
    "tokenIDtoClaimers(uint256,uint256)": "8b4f0496",
    "tokenIDtoDone(uint256)": "a406370a",
    "tokenIDtoIPFS(uint256)": "45149390",
    "tokenIDtoReward(uint256)": "d159a942",
    "tokenURI(uint256)": "c87b56dd",
    "treasury()": "61d027b3",
    "uri(uint256)": "0e89341c"
  },
  "id": 23
}